0590005SEAWAY CS.FORTE014001600000048012IGUATEMI       017003800010366016TACARUNA       016002000020356018SEAWAY RECIFE  014002600000101024SEAWAY NORTE   015000800000099025NEWMAR         015001400000238026RIO MAR        014000700000133028GUARARAPES     015000900020282029PATTEO         012001200010104030E-COMMERCE NOVO000000000000000                  000000000000000                  000000000000000                  000000000000000                  000000000000000                  000000000000000000600060011015000000000
2922005SEAWAY CS.FORTE014001000000089012IGUATEMI       017001500030670016TACARUNA       016001400040385018SEAWAY RECIFE  012001700000170024SEAWAY NORTE   015001500000255025NEWMAR         015001600040361026RIO MAR        014001300030169028GUARARAPES     015001500030435029PATTEO         012001200000119030E-COMMERCE NOVO000001900010016                  000000000000000                  000000000000000                  000000000000000                  000000000000000                  000000000000000002902280004014600110000
2929005SEAWAY CS.FORTE014001200000051012IGUATEMI       017000200020523016TACARUNA       016000500010272018SEAWAY RECIFE  012001100000071024SEAWAY NORTE   015001100020233025NEWMAR         015001200000182026RIO MAR        014001400000069028GUARARAPES     015000400010249029PATTEO         012000700000093030E-COMMERCE NOVO000000000000000                  000000000000000                  000000000000000                  000000000000000                  000000000000000                  000000000000000000601050000007800000000
2931005SEAWAY CS.FORTE014001000000075012IGUATEMI       017000200000684016TACARUNA       016001200000418018SEAWAY RECIFE  012001000000122024SEAWAY NORTE   015001400040490025NEWMAR         015002300000291026RIO MAR        014001000000175028GUARARAPES     015001600000307029PATTEO         012001000000090030E-COMMERCE NOVO000001900000013                  000000000000000                  000000000000000                  000000000000000                  000000000000000                  000000000000000000400140077012600000000
3478005SEAWAY CS.FORTE014000900000116012IGUATEMI       017001200040472016TACARUNA       016001500000472018SEAWAY RECIFE  012001300000158024SEAWAY NORTE   015001000000151025NEWMAR         015001000000300026RIO MAR        014001000000160028GUARARAPES     015001300000266029PATTEO         012000800000137030E-COMMERCE NOVO000000000000000                  000000000000000                  000000000000000                  000000000000000                  000000000000000                  000000000000000000402000000010000000000
3528005SEAWAY CS.FORTE014000500000066012IGUATEMI       017000000000339016TACARUNA       016000100000202018SEAWAY RECIFE  012000200000070024SEAWAY NORTE   015000200000224025NEWMAR         015000400000156026RIO MAR        014000100000079028GUARARAPES     015000000000090029PATTEO         012000100000073030E-COMMERCE NOVO000000000000000                  000000000000000                  000000000000000                  000000000000000                  000000000000000                  000000000000000000001030000001600000000
3732005SEAWAY CS.FORTE014000900000069012IGUATEMI       017001400010374016TACARUNA       016000800010319018SEAWAY RECIFE  012001400000108024SEAWAY NORTE   015001000000213025NEWMAR         015001800000221026RIO MAR        014001200000143028GUARARAPES     015001300020229029PATTEO         012001000010083030E-COMMERCE NOVO000000000000000                  000000000000000                  000000000000000                  000000000000000                  000000000000000                  000000000000000000500160007010800000000
3896005SEAWAY CS.FORTE014001000000055012IGUATEMI       017000100000084016TACARUNA       016001600010197018SEAWAY RECIFE  012001200010102024SEAWAY NORTE   015000900000230025NEWMAR         015001300000119026RIO MAR        014001000010089028GUARARAPES     015001700010179029PATTEO         012001200000070030E-COMMERCE NOVO000002400030024                  000000000000000                  000000000000000                  000000000000000                  000000000000000                  000000000000000000702110016012400000000
3930005SEAWAY CS.FORTE014001100000104012IGUATEMI       017002300130467016TACARUNA       016001600010326018SEAWAY RECIFE  012001500000161024SEAWAY NORTE   015001000030222025NEWMAR         015002100020310026RIO MAR        014001300020160028GUARARAPES     015001800040335029PATTEO         012001200000085030E-COMMERCE NOVO000001900050016                  000000000000000                  000000000000000                  000000000000000                  000000000000000                  000000000000000020502150032015801320000
5265005SEAWAY CS.FORTE014001000010019012IGUATEMI       017002000030043016TACARUNA       016000800040036018SEAWAY RECIFE  012000700000019024SEAWAY NORTE   015001400010028025NEWMAR         015000700020026026RIO MAR        014000600010024028GUARARAPES     015001700030027029PATTEO         012000700010018030E-COMMERCE NOVO000000000000000                  000000000000000                  000000000000000                  000000000000000                  000000000000000                  000000000000000052602000270009602830000
5266005SEAWAY CS.FORTE014001400000006012IGUATEMI       017001900000029016TACARUNA       016001800000017018SEAWAY RECIFE  012001600000008024SEAWAY NORTE   015001500000021025NEWMAR         015002000010024026RIO MAR        014001500000008028GUARARAPES     015001800000007029PATTEO         012001200000010030E-COMMERCE NOVO000000000000000                  000000000000000                  000000000000000                  000000000000000                  000000000000000                  000000000000000031200020033014702770000
5267005SEAWAY CS.FORTE014001100000008012IGUATEMI       017000800000020016TACARUNA       016001200000011018SEAWAY RECIFE  012001400000002024SEAWAY NORTE   015000900000016025NEWMAR         015001300010007026RIO MAR        014001200000004028GUARARAPES     015001200010005029PATTEO         012001300010007030E-COMMERCE NOVO000000000000000                  000000000000000                  000000000000000                  000000000000000                  000000000000000                  000000000000000037600010011010402760000
5272005SEAWAY CS.FORTE014001400000002012IGUATEMI       017002200010011016TACARUNA       016001300030007018SEAWAY RECIFE  014001300000003024SEAWAY NORTE   015001300010002025NEWMAR         015001200010005026RIO MAR        014001400000003028GUARARAPES     015001700000001029PATTEO         012001100000001030E-COMMERCE NOVO000000000000000                  000000000000000                  000000000000000                  000000000000000                  000000000000000                  000000000000000022200980010012901210000
5273005SEAWAY CS.FORTE014001500000000012IGUATEMI       017001700010004016TACARUNA       016001600010003018SEAWAY RECIFE  012001300000001024SEAWAY NORTE   015001200030004025NEWMAR         015001600010001026RIO MAR        014001200010002028GUARARAPES     015001500000003029PATTEO         012001300000002030E-COMMERCE NOVO000000000000000                  000000000000000                  000000000000000                  000000000000000                  000000000000000                  000000000000000023701000000012901460000
5274005SEAWAY CS.FORTE014001700010002012IGUATEMI       017001500010013016TACARUNA       016001600020004018SEAWAY RECIFE  012001800000000024SEAWAY NORTE   015001600020012025NEWMAR         015002000000002026RIO MAR        014001600000006028GUARARAPES     015001900000002029PATTEO         012001400010001030E-COMMERCE NOVO000000000000000                  000000000000000                  000000000000000                  000000000000000                  000000000000000                  000000000000000025101950001015100980000
5289005SEAWAY CS.FORTE014001400000002012IGUATEMI       017003100130030016TACARUNA       016002100010008018SEAWAY RECIFE  012001100010004024SEAWAY NORTE   015002400060016025NEWMAR         015001400020004026RIO MAR        014001100020006028GUARARAPES     015001500000005029PATTEO         012001000020005030E-COMMERCE NOVO000000000000000                  000000000000000                  000000000000000                  000000000000000                  000000000000000                  000000000000000037202020239015101230000
5292005SEAWAY CS.FORTE014001400010001012IGUATEMI       017001800010002016TACARUNA       016001700000000018SEAWAY RECIFE  012001300000000024SEAWAY NORTE   015001600000000025NEWMAR         015001600000000026RIO MAR        014001300000001028GUARARAPES     015001600000000029PATTEO         012001200010001030E-COMMERCE NOVO000000000000000                  000000000000000                  000000000000000                  000000000000000                  000000000000000                  000000000000000021300010006013501330000
5293005SEAWAY CS.FORTE014001700010007012IGUATEMI       017001700010038016TACARUNA       016001900040020018SEAWAY RECIFE  012001300010009024SEAWAY NORTE   015001500000021025NEWMAR         015001400020012026RIO MAR        014001500000016028GUARARAPES     015001600000010029PATTEO         012001300000009030E-COMMERCE NOVO000000000000000                  000000000000000                  000000000000000                  000000000000000                  000000000000000                  000000000000000057802990030013902750000
5294005SEAWAY CS.FORTE014001600010004012IGUATEMI       017001700040010016TACARUNA       016001400020006018SEAWAY RECIFE  012001600010002024SEAWAY NORTE   015001700030007025NEWMAR         015001600000006026RIO MAR        014001700000001028GUARARAPES     015001200010004029PATTEO         012001200010002030E-COMMERCE NOVO000000000000000                  000000000000000                  000000000000000                  000000000000000                  000000000000000                  000000000000000039403970000013701150000
5295005SEAWAY CS.FORTE014001400000000012IGUATEMI       017001700040008016TACARUNA       016001800000002018SEAWAY RECIFE  014001400010001024SEAWAY NORTE   015001300000000025NEWMAR         015001600010002026RIO MAR        014001500000000028GUARARAPES     015001700010001029PATTEO         012001500000000030E-COMMERCE NOVO000000000000000                  000000000000000                  000000000000000                  000000000000000                  000000000000000                  000000000000000021301040007013901340000
5307005SEAWAY CS.FORTE014001200000003012IGUATEMI       017000600000014016TACARUNA       016001100010010018SEAWAY RECIFE  012001400000003024SEAWAY NORTE   015000800000016025NEWMAR         015001400000006026RIO MAR        014001200000003028GUARARAPES     015001400000003029PATTEO         012000900000008030E-COMMERCE NOVO000000000000000                  000000000000000                  000000000000000                  000000000000000                  000000000000000                  000000000000000006400000004010000070000
9162005SEAWAY CS.FORTE014000700010020005SEAWAY CS.FORTE014001500010002012IGUATEMI       017002400040139012IGUATEMI       017002100050017016TACARUNA       016001700010043016TACARUNA       016001600030006018SEAWAY RECIFE  012000800000016018SEAWAY RECIFE  012001200000001024SEAWAY NORTE   015001800030109024SEAWAY NORTE   015002000050010025NEWMAR         015001600000064025NEWMAR         015001900030007026RIO MAR        014000700010025026RIO MAR        014001800010006028GUARARAPES     015001600010072033802020140015701750000
9807005SEAWAY CS.FORTE014001200000013012IGUATEMI       017002100030124016TACARUNA       016001700000054018SEAWAY RECIFE  012001700000035024SEAWAY NORTE   015002300040078025NEWMAR         015001900010067026RIO MAR        014002000000052028GUARARAPES     015001700010054029PATTEO         012001300010023030E-COMMERCE NOVO000000000000000                  000000000000000                  000000000000000                  000000000000000                  000000000000000                  000000000000000046900010177015903640000
9850005SEAWAY CS.FORTE014000800000014012IGUATEMI       017001500050076016TACARUNA       016001500020051018SEAWAY RECIFE  012001600010025024SEAWAY NORTE   015001100090060025NEWMAR         015001400010046026RIO MAR        014001800000022028GUARARAPES     015001500000027029PATTEO         012000900020023030E-COMMERCE NOVO000000000000000                  000000000000000                  000000000000000                  000000000000000                  000000000000000                  000000000000000066704010006012104310000
9876005SEAWAY CS.FORTE014001100010008012IGUATEMI       017001500030053016TACARUNA       016000400010026018SEAWAY RECIFE  012001100000009024SEAWAY NORTE   015000700010039025NEWMAR         015001200000022026RIO MAR        014001900000028028GUARARAPES     015000800000023029PATTEO         012000400000019030E-COMMERCE NOVO000000000000000                  000000000000000                  000000000000000                  000000000000000                  000000000000000                  000000000000000051802000007009102610000
9943005SEAWAY CS.FORTE014000800000010012IGUATEMI       017001800000038016TACARUNA       016000900010016018SEAWAY RECIFE  012001200000002024SEAWAY NORTE   015000900000010025NEWMAR         015001600000009026RIO MAR        014001000000008028GUARARAPES     015000900000012029PATTEO         012001100020016030E-COMMERCE NOVO000000000000000                  000000000000000                  000000000000000                  000000000000000                  000000000000000                  000000000000000018500000099010201720000
9965005SEAWAY CS.FORTE014001700000016012IGUATEMI       017001900020063016TACARUNA       016001500030042018SEAWAY RECIFE  012001800000018024SEAWAY NORTE   015001500000034025NEWMAR         015000700020030026RIO MAR        014001800030025028GUARARAPES     015001600020031029PATTEO         012000900010016030E-COMMERCE NOVO000000000000000                  000000000000000                  000000000000000                  000000000000000                  000000000000000                  000000000000000031100010218013402740000
9976005SEAWAY CS.FORTE014001600010007012IGUATEMI       017001500010026016TACARUNA       016001800010018018SEAWAY RECIFE  012001500000003024SEAWAY NORTE   015001900000019025NEWMAR         015001900000006026RIO MAR        014001500010006028GUARARAPES     015001700000008029PATTEO         012001400000005030E-COMMERCE NOVO000000000000000                  000000000000000                  000000000000000                  000000000000000                  000000000000000                  000000000000000015800010113014801300000
5302005SEAWAY CS.FORTE014001500000000012IGUATEMI       017001400050005016TACARUNA       016001600010001018SEAWAY RECIFE  012001300000000024SEAWAY NORTE   015001500040004025NEWMAR         015001500000000026RIO MAR        014001300010001028GUARARAPES     015001500020002029PATTEO         012001200010001030E-COMMERCE NOVO000000000000000                  000000000000000                  000000000000000                  000000000000000                  000000000000000                  000000000000000022802010004012801500000
9418005SEAWAY CS.FORTE014001000000018012IGUATEMI       017000700000119016TACARUNA       016001100000036018SEAWAY RECIFE  012000900000013024SEAWAY NORTE   015001200020041025NEWMAR         015000800010024026RIO MAR        014000900010027028GUARARAPES     015001500000047029PATTEO         012001000000021030E-COMMERCE NOVO000000000000000                  000000000000000                  000000000000000                  000000000000000                  000000000000000                  000000000000000000502010012009100010000
9736005SEAWAY CS.FORTE014000600000011012IGUATEMI       017001000000110016TACARUNA       016000700010015018SEAWAY RECIFE  012000700000009024SEAWAY NORTE   015000500000019025NEWMAR         015000700010031026RIO MAR        014000500000018028GUARARAPES     015000600000023029PATTEO         012000700000006030E-COMMERCE NOVO000003100000007                  000000000000000                  000000000000000                  000000000000000                  000000000000000                  000000000000000000601980000009100000000
9768005SEAWAY CS.FORTE014001100000006012IGUATEMI       017000100010043016TACARUNA       016000600000016018SEAWAY RECIFE  012001100000004024SEAWAY NORTE   015000400000012025NEWMAR         015000600000015026RIO MAR        014000800000007028GUARARAPES     015000500000009029PATTEO         012000800000004030E-COMMERCE NOVO000000000000000                  000000000000000                  000000000000000                  000000000000000                  000000000000000                  000000000000000000101000001006000000000
9771005SEAWAY CS.FORTE014001600010012012IGUATEMI       017002300020062016TACARUNA       016001600020018018SEAWAY RECIFE  012001300020010024SEAWAY NORTE   015001600000012025NEWMAR         015001900010016026RIO MAR        014001900000012028GUARARAPES     015001800030014029PATTEO         012001000010012030E-COMMERCE NOVO000000000000000                  000000000000000                  000000000000000                  000000000000000                  000000000000000                  000000000000000001501010020015000030000
9791005SEAWAY CS.FORTE014001000000009012IGUATEMI       017000000000098016TACARUNA       016000900000044018SEAWAY RECIFE  012001100000017024SEAWAY NORTE   015000200010044025NEWMAR         015001000000019026RIO MAR        014001100000018028GUARARAPES     015001100000027029PATTEO         012000700010018030E-COMMERCE NOVO000001300020010                  000000000000000                  000000000000000                  000000000000000                  000000000000000                  000000000000000000501000000008400010000
9973005SEAWAY CS.FORTE014001500000000012IGUATEMI       017001700000000016TACARUNA       016001600010001018SEAWAY RECIFE  012001300000000024SEAWAY NORTE   015001500010001025NEWMAR         015001900020002026RIO MAR        014001400010001028GUARARAPES     015001600010001029PATTEO         012001300000000030E-COMMERCE NOVO000000000000000                  000000000000000                  000000000000000                  000000000000000                  000000000000000                  000000000000000022002010015013801370000
2926005SEAWAY CS.FORTE014001500020076012IGUATEMI       015000100000173016TACARUNA       015001500010196018SEAWAY RECIFE  012002600000080024SEAWAY NORTE   014001400030150025NEWMAR         015001600030183026RIO MAR        012000900040111028GUARARAPES     014001400000135029PATTEO         012001200010084030E-COMMERCE NOVO000000000000000                  000000000000000                  000000000000000                  000000000000000                  000000000000000                  000000000000000001401000015012200000000
3818005SEAWAY CS.FORTE014000900000043012IGUATEMI       015000000010143016TACARUNA       015000100000083018SEAWAY RECIFE  012000100000082024SEAWAY NORTE   014000100000066025NEWMAR         015000100000095026RIO MAR        012000200000063028GUARARAPES     014000100000073029PATTEO         012000100000049030E-COMMERCE NOVO000000000000000                  000000000000000                  000000000000000                  000000000000000                  000000000000000                  000000000000000000101000000001700000000
3897005SEAWAY CS.FORTE014000700000033012IGUATEMI       015000000000069016TACARUNA       015000000000062018SEAWAY RECIFE  012000900000040024SEAWAY NORTE   014000600000052025NEWMAR         015000300000063026RIO MAR        012000100000046028GUARARAPES     014000300000050029PATTEO         012000600000039030E-COMMERCE NOVO000000000000000                  000000000000000                  000000000000000                  000000000000000                  000000000000000                  000000000000000000001000001003500000000
3971005SEAWAY CS.FORTE014001400010060012IGUATEMI       015001700000144016TACARUNA       015001100020147018SEAWAY RECIFE  012001400000083024SEAWAY NORTE   014000800000059025NEWMAR         015001800020088026RIO MAR        012001500020078028GUARARAPES     014001500010129029PATTEO         012000100000025030E-COMMERCE NOVO000000000000000                  000000000000000                  000000000000000                  000000000000000                  000000000000000                  000000000000000000801000004011300000000
5301005SEAWAY CS.FORTE014000000000000012IGUATEMI       015001600000000016TACARUNA       015000000000000018SEAWAY RECIFE  012001500000000024SEAWAY NORTE   014001500000000025NEWMAR         015001700000000026RIO MAR        012001300000000028GUARARAPES     014001500000000029PATTEO         012000000000000030E-COMMERCE NOVO000000000000000                  000000000000000                  000000000000000                  000000000000000                  000000000000000                  000000000000000038402000064009100450000
5362005SEAWAY CS.FORTE014000000000000012IGUATEMI       015001600000000016TACARUNA       015000000000000018SEAWAY RECIFE  012000000000000024SEAWAY NORTE   014001500000000025NEWMAR         015000000000000026RIO MAR        012000000000000028GUARARAPES     014001500000000029PATTEO         012000000000000030E-COMMERCE NOVO000000000000000                  000000000000000                  000000000000000                  000000000000000                  000000000000000                  000000000000000043000040302004600480000
9169005SEAWAY CS.FORTE014001000000004012IGUATEMI       015000000000018016TACARUNA       015000000000017018SEAWAY RECIFE  012000700000008024SEAWAY NORTE   014000400000010025NEWMAR         015000200000013026RIO MAR        012000500000008028GUARARAPES     014000400000012029PATTEO         012000700000004030E-COMMERCE NOVO000000000000000                  000000000000000                  000000000000000                  000000000000000                  000000000000000                  000000000000000000001000000003900000000
9635005SEAWAY CS.FORTE014000500000007012IGUATEMI       015000000000030016TACARUNA       015000100000017018SEAWAY RECIFE  012000700000016024SEAWAY NORTE   014000100000010025NEWMAR         015000800000018026RIO MAR        012000400000006028GUARARAPES     014000500000011029PATTEO         012000300000010030E-COMMERCE NOVO000000000000000                  000000000000000                  000000000000000                  000000000000000                  000000000000000                  000000000000000000101000000003400000000
9637005SEAWAY CS.FORTE014000600010013012IGUATEMI       015001300010050016TACARUNA       015001100000020018SEAWAY RECIFE  012001200010017024SEAWAY NORTE   014000500000022025NEWMAR         015001500000027026RIO MAR        012001500010020028GUARARAPES     014001100000020029PATTEO         012000800010009030E-COMMERCE NOVO000000000000000                  000000000000000                  000000000000000                  000000000000000                  000000000000000                  000000000000000000501010011009600000000
1880005SEAWAY CS.FORTE008000000000020012IGUATEMI       008000400000006016TACARUNA       012000000000024018SEAWAY RECIFE  008000000000011024SEAWAY NORTE   008000500000001025NEWMAR         012000000000019026RIO MAR        009000100000010028GUARARAPES     010000200000009029PATTEO         008000300000010030E-COMMERCE NOVO000000000000000                  000000000000000                  000000000000000                  000000000000000                  000000000000000                  000000000000000000001200001001500000000
2870005SEAWAY CS.FORTE008000600000018012IGUATEMI       008000900000005016TACARUNA       012001500020098018SEAWAY RECIFE  008000800020021024SEAWAY NORTE   008000700000003025NEWMAR         012001100010039026RIO MAR        009001000010024028GUARARAPES     010001000000021029PATTEO         008000700000018030E-COMMERCE NOVO000000000000000                  000000000000000                  000000000000000                  000000000000000                  000000000000000                  000000000000000000600000043008300000000
3796005SEAWAY CS.FORTE008000200000065012IGUATEMI       008000800000007016TACARUNA       012000100010160018SEAWAY RECIFE  008000400000053024SEAWAY NORTE   008000700000007025NEWMAR         012000300000079026RIO MAR        009000400000053028GUARARAPES     010000300000028029PATTEO         008000500000040030E-COMMERCE NOVO000000000000000                  000000000000000                  000000000000000                  000000000000000                  000000000000000                  000000000000000000101200000003700000000
3941005SEAWAY CS.FORTE008001000020032012IGUATEMI       008000500000012016TACARUNA       012001400020038018SEAWAY RECIFE  008000700000022024SEAWAY NORTE   008000800000003025NEWMAR         012001200000038026RIO MAR        009001000000031028GUARARAPES     010000900010014029PATTEO         008000700010018030E-COMMERCE NOVO000000000000000                  000000000000000                  000000000000000                  000000000000000                  000000000000000                  000000000000000000600030039008200000000
5278005SEAWAY CS.FORTE008000700030003012IGUATEMI       008000900000000016TACARUNA       012001000030003018SEAWAY RECIFE  008000700000000024SEAWAY NORTE   008001000000000025NEWMAR         012001200010001026RIO MAR        009000700000000028GUARARAPES     010001100000000029PATTEO         008000800020002030E-COMMERCE NOVO000000000000000                  000000000000000                  000000000000000                  000000000000000                  000000000000000                  000000000000000011901170018008100080000
5282005SEAWAY CS.FORTE008000000000000012IGUATEMI       008000900000000016TACARUNA       012000000000000018SEAWAY RECIFE  008000900000000024SEAWAY NORTE   008001000000000025NEWMAR         012001200010001026RIO MAR        009001000000000028GUARARAPES     010001100000000029PATTEO         008000000000000030E-COMMERCE NOVO000000000000000                  000000000000000                  000000000000000                  000000000000000                  000000000000000                  000000000000000013200000157006100180000
6153005SEAWAY CS.FORTE008000300000081012IGUATEMI       008001100000005016TACARUNA       012000000000187018SEAWAY RECIFE  008000100000043024SEAWAY NORTE   008000600000005025NEWMAR         012000000000076026RIO MAR        009000000000052028GUARARAPES     010000300000026029PATTEO         008000000000028030E-COMMERCE NOVO000000000000000                  000000000000000                  000000000000000                  000000000000000                  000000000000000                  000000000000000000001230000002400000000
9798005SEAWAY CS.FORTE008000300000009012IGUATEMI       008000400000003016TACARUNA       012000200000022018SEAWAY RECIFE  008000400000005024SEAWAY NORTE   008000900000000025NEWMAR         012000300000015026RIO MAR        009000300000010028GUARARAPES     010000400000009029PATTEO         008000300000007030E-COMMERCE NOVO000000000000000                  000000000000000                  000000000000000                  000000000000000                  000000000000000                  000000000000000000001200000003500000000
1998005SEAWAY CS.FORTE008000500000102012IGUATEMI       008000300000023016TACARUNA       012001000030235018SEAWAY RECIFE  008000800010089024SEAWAY NORTE   008000900000006025NEWMAR         012001300000127026RIO MAR        009000600000100028GUARARAPES     010001100010061029PATTEO         008000600010065030E-COMMERCE NOVO000000000000000                  000000000000000                  000000000000000                  000000000000000                  000000000000000                  000000000000000000600010058007100000000
3457005SEAWAY CS.FORTE008000700000066012IGUATEMI       008000600000012016TACARUNA       012001300020195018SEAWAY RECIFE  008000800000062024SEAWAY NORTE   008000700000003025NEWMAR         012000700000076026RIO MAR        009000700010054028GUARARAPES     010001000000027029PATTEO         008000700000038030E-COMMERCE NOVO000000000000000                  000000000000000                  000000000000000                  000000000000000                  000000000000000                  000000000000000000300010065007200000000
3620005SEAWAY CS.FORTE008000400010093012IGUATEMI       008000500010025016TACARUNA       012000400000176018SEAWAY RECIFE  008000500000070024SEAWAY NORTE   008000800000005025NEWMAR         012000900010091026RIO MAR        009000500000078028GUARARAPES     010001100010034029PATTEO         008000800020052030E-COMMERCE NOVO000000000000000                  000000000000000                  000000000000000                  000000000000000                  000000000000000                  000000000000000000601290006005900000020
3791005SEAWAY CS.FORTE008000500010078012IGUATEMI       008000500000008016TACARUNA       012000500000131018SEAWAY RECIFE  008000400000055024SEAWAY NORTE   008001000000001025NEWMAR         012000700000105026RIO MAR        009000700000057028GUARARAPES     010001200000027029PATTEO         008000800000040030E-COMMERCE NOVO000000000000000                  000000000000000                  000000000000000                  000000000000000                  000000000000000                  000000000000000000100010001006300000000
5291005SEAWAY CS.FORTE008000600010008012IGUATEMI       008000900000000016TACARUNA       012000700010016018SEAWAY RECIFE  008000600010003024SEAWAY NORTE   008001000000000025NEWMAR         012001300000004026RIO MAR        009000600000006028GUARARAPES     010001000000004029PATTEO         008000900010002030E-COMMERCE NOVO000000000000000                  000000000000000                  000000000000000                  000000000000000                  000000000000000                  000000000000000000401200001007600000000
6155005SEAWAY CS.FORTE008000100000080012IGUATEMI       008000700000024016TACARUNA       012000000000208018SEAWAY RECIFE  008000000000097024SEAWAY NORTE   008000800000002025NEWMAR         012000000000130026RIO MAR        009000000000082028GUARARAPES     010000300000042029PATTEO         008000100000054030E-COMMERCE NOVO000000000000000                  000000000000000                  000000000000000                  000000000000000                  000000000000000                  000000000000000000001220000002000000000
9796005SEAWAY CS.FORTE008000600020023012IGUATEMI       008000600000001016TACARUNA       012000600020039018SEAWAY RECIFE  008000800000006024SEAWAY NORTE   008001000000001025NEWMAR         012001100010011026RIO MAR        009000900000008028GUARARAPES     010001100020009029PATTEO         008000600000009030E-COMMERCE NOVO000000000000000                  000000000000000                  000000000000000                  000000000000000                  000000000000000                  000000000000000000700000058007300000000
0771005SEAWAY CS.FORTE008000400000073012IGUATEMI       019000000000660016TACARUNA       012000800010244018SEAWAY RECIFE  008000800000078024SEAWAY NORTE   008000200000338025NEWMAR         012000200000144026RIO MAR        008001000000066028GUARARAPES     008000100000181029PATTEO         008000300000085030E-COMMERCE NOVO000000000000000                  000000000000000                  000000000000000                  000000000000000                  000000000000000                  000000000000000000101860000003800000000
1619005SEAWAY CS.FORTE008000400000065012IGUATEMI       019000300000117016TACARUNA       014000600000138018SEAWAY RECIFE  008000200000059024SEAWAY NORTE   008000400000067025NEWMAR         014000200000098026RIO MAR        008000600000068028GUARARAPES     008000400000075029PATTEO         008000300000049030E-COMMERCE NOVO000000000000000                  000000000000000                  000000000000000                  000000000000000                  000000000000000                  000000000000000000100960087003400000000
2866005SEAWAY CS.FORTE008000800000061012IGUATEMI       019001700000672016TACARUNA       012000900010263018SEAWAY RECIFE  008000500000039024SEAWAY NORTE   008001300020414025NEWMAR         012001000000055026RIO MAR        008000600000051028GUARARAPES     008000900010165029PATTEO         008000500000068030E-COMMERCE NOVO000000000000000                  000000000000000                  000000000000000                  000000000000000                  000000000000000                  000000000000000000400050125008200000000
2893005SEAWAY CS.FORTE008000500000089012IGUATEMI       019000100000426016TACARUNA       012000400000253018SEAWAY RECIFE  008000600000083024SEAWAY NORTE   008000000000238025NEWMAR         012000700000159026RIO MAR        008000500000084028GUARARAPES     008000200000155029PATTEO         008000300020080030E-COMMERCE NOVO000000000000000                  000000000000000                  000000000000000                  000000000000000                  000000000000000                  000000000000000000201980020003300000000
2902005SEAWAY CS.FORTE008000700000077012IGUATEMI       019000200000829016TACARUNA       012000700000128018SEAWAY RECIFE  008000400010083024SEAWAY NORTE   008000100000446025NEWMAR         012000600000086026RIO MAR        008000600000053028GUARARAPES     008000800000126029PATTEO         008000300000082030E-COMMERCE NOVO000000000000000                  000000000000000                  000000000000000                  000000000000000                  000000000000000                  000000000000000000101870000004400000000
2995005SEAWAY CS.FORTE008000700000087012IGUATEMI       019002000000734016TACARUNA       012000400000288018SEAWAY RECIFE  008000300000070024SEAWAY NORTE   008000400000349025NEWMAR         012000800000175026RIO MAR        008000600000083028GUARARAPES     008000500000174029PATTEO         008000300000071030E-COMMERCE NOVO000000000000000                  000000000000000                  000000000000000                  000000000000000                  000000000000000                  000000000000000000000060158006000000000
3413005SEAWAY CS.FORTE008000700010016012IGUATEMI       019001500010049016TACARUNA       014001100010086018SEAWAY RECIFE  008000400030016024SEAWAY NORTE   008000600000010025NEWMAR         014001100020011026RIO MAR        008000600010018028GUARARAPES     008000600010019029PATTEO         008000800010022030E-COMMERCE NOVO000000100000005                  000000000000000                  000000000000000                  000000000000000                  000000000000000                  000000000000000001101800006007500000000
3598005SEAWAY CS.FORTE008000300000075012IGUATEMI       019002000010588016TACARUNA       012000200010224018SEAWAY RECIFE  008000300000093024SEAWAY NORTE   008000500000333025NEWMAR         012000400000129026RIO MAR        008000200000057028GUARARAPES     008000900000132029PATTEO         008000200000083030E-COMMERCE NOVO000000000000000                  000000000000000                  000000000000000                  000000000000000                  000000000000000                  000000000000000000200220192005000000000
3617005SEAWAY CS.FORTE008001000000124012IGUATEMI       019002800050477016TACARUNA       014001900020276018SEAWAY RECIFE  008001200020115024SEAWAY NORTE   008001900050313025NEWMAR         014002100030202026RIO MAR        008001200000132028GUARARAPES     008001700040212029PATTEO         008001000010092030E-COMMERCE NOVO000000000000000                  000000000000000                  000000000000000                  000000000000000                  000000000000000                  000000000000000002200330160014800000040
3825005SEAWAY CS.FORTE008000900000131012IGUATEMI       019001800010283016TACARUNA       014000800050268018SEAWAY RECIFE  008001400010112024SEAWAY NORTE   008000800000116025NEWMAR         014001000000139026RIO MAR        008000900020119028GUARARAPES     008000700020140029PATTEO         008000700010057030E-COMMERCE NOVO000000000000005                  000000000000000                  000000000000000                  000000000000000                  000000000000000                  000000000000000001201840002009000000000
3830005SEAWAY CS.FORTE008001200030112012IGUATEMI       019001200010091016TACARUNA       014002200080248018SEAWAY RECIFE  008001300000099024SEAWAY NORTE   008001100010130025NEWMAR         014001900000155026RIO MAR        008001200020137028GUARARAPES     008001400030114029PATTEO         008001000010066030E-COMMERCE NOVO000000000000000                  000000000000000                  000000000000000                  000000000000000                  000000000000000                  000000000000000001900060132012500000000
3832005SEAWAY CS.FORTE008000900000053012IGUATEMI       019000600000409016TACARUNA       014001200020163018SEAWAY RECIFE  008000400000055024SEAWAY NORTE   008000700000280025NEWMAR         014000800000107026RIO MAR        008000900010075028GUARARAPES     008001200020114029PATTEO         008000800000059030E-COMMERCE NOVO000000000000000                  000000000000000                  000000000000000                  000000000000000                  000000000000000                  000000000000000000500040170007500000000
3845005SEAWAY CS.FORTE008001400020076012IGUATEMI       019000100000087016TACARUNA       014001500020183018SEAWAY RECIFE  008001200010122024SEAWAY NORTE   008001400010292025NEWMAR         014001800030163026RIO MAR        008001400050118028GUARARAPES     008001000020118029PATTEO         008000900030086030E-COMMERCE NOVO000001300030012                  000000000000000                  000000000000000                  000000000000000                  000000000000000                  000000000000000002200090227012000000000
3847005SEAWAY CS.FORTE008001100010068012IGUATEMI       019003600170535016TACARUNA       014001800010185018SEAWAY RECIFE  008001700010074024SEAWAY NORTE   008001800030214025NEWMAR         014002100010125026RIO MAR        008000900000049028GUARARAPES     008001200020102029PATTEO         008001000000066030E-COMMERCE NOVO000000000000000                  000000000000000                  000000000000000                  000000000000000                  000000000000000                  000000000000000002600290145015200000000
3920005SEAWAY CS.FORTE008001300010067012IGUATEMI       019002200030431016TACARUNA       014001600020181018SEAWAY RECIFE  008001000020036024SEAWAY NORTE   008001600040244025NEWMAR         014001200000091026RIO MAR        008000500000072028GUARARAPES     008000900010080029PATTEO         008001000000049030E-COMMERCE NOVO000000000000000                  000000000000000                  000000000000000                  000000000000000                  000000000000000                  000000000000000001302530021011300000000
5262005SEAWAY CS.FORTE008000900000005012IGUATEMI       019002100020056016TACARUNA       014001400000012018SEAWAY RECIFE  008000900010006024SEAWAY NORTE   008001200010026025NEWMAR         014001600010007026RIO MAR        008001200000004028GUARARAPES     008001100020007029PATTEO         008001000000004030E-COMMERCE NOVO000000000000000                  000000000000000                  000000000000000                  000000000000000                  000000000000000                  000000000000000024100000122011401720000
5263005SEAWAY CS.FORTE008000900020007012IGUATEMI       019001900010049016TACARUNA       014001900000014018SEAWAY RECIFE  008000800000007024SEAWAY NORTE   008001200020029025NEWMAR         014001400010008026RIO MAR        008000600000004028GUARARAPES     008000800010011029PATTEO         008000900020007030E-COMMERCE NOVO000000000000000                  000000000000000                  000000000000000                  000000000000000                  000000000000000                  000000000000000038400030030010402740000
5269005SEAWAY CS.FORTE008001000010005012IGUATEMI       019002500060049016TACARUNA       014001600010014018SEAWAY RECIFE  008000800000003024SEAWAY NORTE   008001500020027025NEWMAR         014001200000008026RIO MAR        008000800000002028GUARARAPES     008001300030017029PATTEO         008000900010012030E-COMMERCE NOVO000000000000000                  000000000000000                  000000000000000                  000000000000000                  000000000000000                  000000000000000024800000123011602120000
5270005SEAWAY CS.FORTE008001200010012012IGUATEMI       019003000000063016TACARUNA       014001400010021018SEAWAY RECIFE  008000900010007024SEAWAY NORTE   008002100080062025NEWMAR         014001500010015026RIO MAR        008000700020010028GUARARAPES     008001200020015029PATTEO         008000800010005030E-COMMERCE NOVO000000000000000                  000000000000000                  000000000000000                  000000000000000                  000000000000000                  000000000000000040201810142012802900000
5296005SEAWAY CS.FORTE008000900010008012IGUATEMI       019002200030072016TACARUNA       014001000020012018SEAWAY RECIFE  008000900000002024SEAWAY NORTE   008001700050041025NEWMAR         014001600000011026RIO MAR        008001000010009028GUARARAPES     008001100020015029PATTEO         008001000030010030E-COMMERCE NOVO000000000000000                  000000000000000                  000000000000000                  000000000000000                  000000000000000                  000000000000000047600000102011403640000
5297005SEAWAY CS.FORTE008000500000005012IGUATEMI       019002100020061016TACARUNA       014001200000011018SEAWAY RECIFE  008000900000006024SEAWAY NORTE   008001400050030025NEWMAR         014000700010013026RIO MAR        008000800000007028GUARARAPES     008000900010009029PATTEO         008000700000009030E-COMMERCE NOVO000000000000000                  000000000000000                  000000000000000                  000000000000000                  000000000000000                  000000000000000037600000126009203010000
5298005SEAWAY CS.FORTE008001000000006012IGUATEMI       019002300050035016TACARUNA       014001400000006018SEAWAY RECIFE  008001100010008024SEAWAY NORTE   008001500070037025NEWMAR         014001300020009026RIO MAR        008001300020015028GUARARAPES     008000900000003029PATTEO         008000700020006030E-COMMERCE NOVO000000000000000                  000000000000000                  000000000000000                  000000000000000                  000000000000000                  000000000000000040402400034011503190000
5316005SEAWAY CS.FORTE008001000000007012IGUATEMI       019002300030067016TACARUNA       014001200030019018SEAWAY RECIFE  008000600040010024SEAWAY NORTE   008001100050032025NEWMAR         014001000000009026RIO MAR        008000800000005028GUARARAPES     008000900020017029PATTEO         008000500010008030E-COMMERCE NOVO000000000000000                  000000000000000                  000000000000000                  000000000000000                  000000000000000                  000000000000000041400850226009402750000
5323005SEAWAY CS.FORTE008000700010003012IGUATEMI       019002500070044016TACARUNA       014001500020013018SEAWAY RECIFE  008000800000005024SEAWAY NORTE   008001600020028025NEWMAR         014001400000005026RIO MAR        008001000000004028GUARARAPES     008001200030013029PATTEO         008000800000003030E-COMMERCE NOVO000000000000000                  000000000000000                  000000000000000                  000000000000000                  000000000000000                  000000000000000051300000230011503660000
5376005SEAWAY CS.FORTE008001500040005012IGUATEMI       019002800090011016TACARUNA       014001900040006018SEAWAY RECIFE  008000900010001024SEAWAY NORTE   008001500050007025NEWMAR         014001500010001026RIO MAR        008000900000000028GUARARAPES     008001300030005029PATTEO         008001000010001030E-COMMERCE NOVO000000000000000                  000000000000000                  000000000000000                  000000000000000                  000000000000000                  000000000000000032602400033013301570000
5380005SEAWAY CS.FORTE008000500040004012IGUATEMI       019001800030003016TACARUNA       014000900070007018SEAWAY RECIFE  008000700020002024SEAWAY NORTE   008000800010001025NEWMAR         014001500000002026RIO MAR        008000800010002028GUARARAPES     008000800010001029PATTEO         008001000000000030E-COMMERCE NOVO000000000000000                  000000000000000                  000000000000000                  000000000000000                  000000000000000                  000000000000000028302400021008802290000
5381005SEAWAY CS.FORTE008001000030003012IGUATEMI       019003100050012016TACARUNA       014001600060008018SEAWAY RECIFE  008001000020002024SEAWAY NORTE   008001500040006025NEWMAR         014001400010002026RIO MAR        008000900010001028GUARARAPES     008001200030004029PATTEO         008000900020002030E-COMMERCE NOVO000000000000000                  000000000000000                  000000000000000                  000000000000000                  000000000000000                  000000000000000030902400029012601640000
5385005SEAWAY CS.FORTE008001200030003012IGUATEMI       019001800020002016TACARUNA       014001300040004018SEAWAY RECIFE  008000900010001024SEAWAY NORTE   008001300040004025NEWMAR         014001700020003026RIO MAR        008000800010001028GUARARAPES     008000900010001029PATTEO         008001000020002030E-COMMERCE NOVO000000000000000                  000000000000000                  000000000000000                  000000000000000                  000000000000000                  000000000000000041000000012010902760000
9243005SEAWAY CS.FORTE008000900000014012IGUATEMI       019002000020165016TACARUNA       014001500000023018SEAWAY RECIFE  008000800000006024SEAWAY NORTE   008001400030069025NEWMAR         014001700000029026RIO MAR        008000700030018028GUARARAPES     008001200000032029PATTEO         008000900000008030E-COMMERCE NOVO000001500020017                  000000000000000                  000000000000000                  000000000000000                  000000000000000                  000000000000000001000000234012600000000
9440005SEAWAY CS.FORTE008000900000017012IGUATEMI       019002300020162016TACARUNA       014001900020034018SEAWAY RECIFE  008001100020009024SEAWAY NORTE   008001500040064025NEWMAR         014001200010024026RIO MAR        008001400000019028GUARARAPES     008000900030030029PATTEO         008001000000013030E-COMMERCE NOVO000002200000009                  000000000000000                  000000000000000                  000000000000000                  000000000000000                  000000000000000001400000030014400000000
9591005SEAWAY CS.FORTE008000600000029012IGUATEMI       019002200020066016TACARUNA       014001000040062018SEAWAY RECIFE  008001400010027024SEAWAY NORTE   008000900010012025NEWMAR         014001700030043026RIO MAR        008001200010054028GUARARAPES     008001400030037029PATTEO         008001000010026030E-COMMERCE NOVO000002400020008                  000000000000000                  000000000000000                  000000000000000                  000000000000000                  000000000000000001801800042013800000000
9653005SEAWAY CS.FORTE008000900000022012IGUATEMI       019002200050178016TACARUNA       014001700020070018SEAWAY RECIFE  008001000000026024SEAWAY NORTE   008001300020053025NEWMAR         014001600020040026RIO MAR        008001300000031028GUARARAPES     008001300040040029PATTEO         008001000000023030E-COMMERCE NOVO000000000010016                  000000000000000                  000000000000000                  000000000000000                  000000000000000                  000000000000000001600000083012300000000
9812005SEAWAY CS.FORTE008000900010009012IGUATEMI       019002600000099016TACARUNA       014001700000033018SEAWAY RECIFE  008001000010007024SEAWAY NORTE   008001200000028025NEWMAR         014001700000006026RIO MAR        008001000000008028GUARARAPES     008001000000012029PATTEO         008001200000011030E-COMMERCE NOVO000000000000000                  000000000000000                  000000000000000                  000000000000000                  000000000000000                  000000000000000016800010079012301560000
9818005SEAWAY CS.FORTE008000600000005012IGUATEMI       019000900000023016TACARUNA       014001900000020018SEAWAY RECIFE  008000900000004024SEAWAY NORTE   008001600040053025NEWMAR         014001000010012026RIO MAR        008000800000003028GUARARAPES     008001000010019029PATTEO         008001100000013030E-COMMERCE NOVO000000000000000                  000000000000000                  000000000000000                  000000000000000                  000000000000000                  000000000000000032300010036009802460000
9886005SEAWAY CS.FORTE008000900010006012IGUATEMI       019001900010062016TACARUNA       014001100020019018SEAWAY RECIFE  008000900010007024SEAWAY NORTE   008001400020022025NEWMAR         014001700010025026RIO MAR        008000900010013028GUARARAPES     008001100020021029PATTEO         008001000000006030E-COMMERCE NOVO000000000000000                  000000000000000                  000000000000000                  000000000000000                  000000000000000                  000000000000000047700000030010903920000
9898005SEAWAY CS.FORTE008001100010008012IGUATEMI       019002700000040016TACARUNA       014001600000010018SEAWAY RECIFE  008001500000008024SEAWAY NORTE   008001300010034025NEWMAR         014001400000002026RIO MAR        008001200000009028GUARARAPES     008001500000012029PATTEO         008000900010002030E-COMMERCE NOVO000000000000000                  000000000000000                  000000000000000                  000000000000000                  000000000000000                  000000000000000039900010170013202810000
9929005SEAWAY CS.FORTE008001000000006012IGUATEMI       019002100010054016TACARUNA       014001500020016018SEAWAY RECIFE  008001800020007024SEAWAY NORTE   008000900000009025NEWMAR         014001400000008026RIO MAR        008001300000008028GUARARAPES     008001000010006029PATTEO         008001000000005030E-COMMERCE NOVO000000000000000                  000000000000000                  000000000000000                  000000000000000                  000000000000000                  000000000000000024000000102012001940000
9961005SEAWAY CS.FORTE008000900000004012IGUATEMI       019002300040052016TACARUNA       014002000050019018SEAWAY RECIFE  008000900010006024SEAWAY NORTE   008001800030042025NEWMAR         014001900030024026RIO MAR        008000900010005028GUARARAPES     008001200000016029PATTEO         008001000000003030E-COMMERCE NOVO000000000000000                  000000000000000                  000000000000000                  000000000000000                  000000000000000                  000000000000000048400000140012903980000
9967005SEAWAY CS.FORTE008001000000008012IGUATEMI       019002500050101016TACARUNA       014001400010018018SEAWAY RECIFE  008000700010008024SEAWAY NORTE   008001300020041025NEWMAR         014001800000011026RIO MAR        008001000010011028GUARARAPES     008001100010015029PATTEO         008000900010010030E-COMMERCE NOVO000000000000000                  000000000000000                  000000000000000                  000000000000000                  000000000000000                  000000000000000040600010138011702960000
0772005SEAWAY CS.FORTE008000300000118012IGUATEMI       012000100000746016TACARUNA       012000100010407018SEAWAY RECIFE  008000500010114024SEAWAY NORTE   008000300020584025NEWMAR         012001000000170026RIO MAR        007000700000086028GUARARAPES     008000400000187029PATTEO         008000200000112030E-COMMERCE NOVO000000000000000                  000000000000000                  000000000000000                  000000000000000                  000000000000000                  000000000000000000401910010003600000000
0957005SEAWAY CS.FORTE008000200000071012IGUATEMI       012000000000729016TACARUNA       012000100010293018SEAWAY RECIFE  008000100000073024SEAWAY NORTE   008000000000474025NEWMAR         012000900020145026RIO MAR        007000000010071028GUARARAPES     008000400000145029PATTEO         008000100000110030E-COMMERCE NOVO000000000000000                  000000000000000                  000000000000000                  000000000000000                  000000000000000                  000000000000000000400060006001800000000
1866005SEAWAY CS.FORTE008000000000058012IGUATEMI       012000000000747016TACARUNA       012000000000277018SEAWAY RECIFE  008000000000067024SEAWAY NORTE   008000100000470025NEWMAR         012000000000082026RIO MAR        007000100000052028GUARARAPES     008000000000100029PATTEO         008000000000100030E-COMMERCE NOVO000000000000000                  000000000000000                  000000000000000                  000000000000000                  000000000000000                  000000000000000000000100000000200000000
2972005SEAWAY CS.FORTE008000400000061012IGUATEMI       012000000000473016TACARUNA       012000100000241018SEAWAY RECIFE  008000000000067024SEAWAY NORTE   008000000000318025NEWMAR         012000300020116026RIO MAR        007000100000059028GUARARAPES     008000100010128029PATTEO         008000000000090030E-COMMERCE NOVO000000000000000                  000000000000000                  000000000000000                  000000000000000                  000000000000000                  000000000000000000300060054001000000000
2993005SEAWAY CS.FORTE008000000000050012IGUATEMI       012000000000463016TACARUNA       012000100000266018SEAWAY RECIFE  008000000000047024SEAWAY NORTE   008000000000355025NEWMAR         012000200000173026RIO MAR        007000200000037028GUARARAPES     008000100000098029PATTEO         008000000000061030E-COMMERCE NOVO000000000000000                  000000000000000                  000000000000000                  000000000000000                  000000000000000                  000000000000000000002480000000600000000
3439005SEAWAY CS.FORTE008000000000078012IGUATEMI       012000000000402016TACARUNA       012000000000238018SEAWAY RECIFE  008000300000076024SEAWAY NORTE   008000000000236025NEWMAR         012000000000082026RIO MAR        007000100000041028GUARARAPES     008000100000113029PATTEO         008000000000082030E-COMMERCE NOVO000000000000000                  000000000000000                  000000000000000                  000000000000000                  000000000000000                  000000000000000000001800000000500000000
3834005SEAWAY CS.FORTE008000000000038012IGUATEMI       018000000000164016TACARUNA       012000000000089018SEAWAY RECIFE  008000100000027024SEAWAY NORTE   010000000000130025NEWMAR         012000700000054026RIO MAR        008000300000035028GUARARAPES     008000200000044029PATTEO         008000000000026030E-COMMERCE NOVO000000000000000                  000000000000000                  000000000000000                  000000000000000                  000000000000000                  000000000000000000001840000001300000000
3849005SEAWAY CS.FORTE008001300020090012IGUATEMI       018003100180616016TACARUNA       012000800090184018SEAWAY RECIFE  008001300030062024SEAWAY NORTE   010002000170264025NEWMAR         012002000040094026RIO MAR        008001300000047028GUARARAPES     008001100020081029PATTEO         008000800000051030E-COMMERCE NOVO000000000000000                  000000000000000                  000000000000000                  000000000000000                  000000000000000                  000000000000000005504850000013700000000
5260005SEAWAY CS.FORTE008000900000003012IGUATEMI       018002400010034016TACARUNA       012001200000020018SEAWAY RECIFE  008000900000001024SEAWAY NORTE   010001300020023025NEWMAR         012001000000005026RIO MAR        008000700010003028GUARARAPES     008001400010013029PATTEO         008000700000009030E-COMMERCE NOVO000000000000000                  000000000000000                  000000000000000                  000000000000000                  000000000000000                  000000000000000035500000047010502990000
5264005SEAWAY CS.FORTE008001300000014012IGUATEMI       018002600050042016TACARUNA       012001300000016018SEAWAY RECIFE  008001500000007024SEAWAY NORTE   010001300020024025NEWMAR         012001200000010026RIO MAR        008001100000009028GUARARAPES     008001000010017029PATTEO         008000600020008030E-COMMERCE NOVO000000000000000                  000000000000000                  000000000000000                  000000000000000                  000000000000000                  000000000000000042200030191011903110000
5271005SEAWAY CS.FORTE008000600020008012IGUATEMI       018002700040039016TACARUNA       012001400030015018SEAWAY RECIFE  008000600020004024SEAWAY NORTE   010001400020025025NEWMAR         012001500020013026RIO MAR        008001000000005028GUARARAPES     008001200010017029PATTEO         008000700020009030E-COMMERCE NOVO000000000000000                  000000000000000                  000000000000000                  000000000000000                  000000000000000                  000000000000000041900000233011103250000
5299005SEAWAY CS.FORTE008001000020009012IGUATEMI       018003100110088016TACARUNA       012001400040022018SEAWAY RECIFE  008000700020005024SEAWAY NORTE   010002000060029025NEWMAR         012001500020016026RIO MAR        008000600030010028GUARARAPES     008001200020014029PATTEO         008000500020006030E-COMMERCE NOVO000000000000000                  000000000000000                  000000000000000                  000000000000000                  000000000000000                  000000000000000046600010094012003930000
5315005SEAWAY CS.FORTE008000800020012012IGUATEMI       018002800080062016TACARUNA       012001200000017018SEAWAY RECIFE  008001000000006024SEAWAY NORTE   010001700050036025NEWMAR         012001700030012026RIO MAR        008001200010011028GUARARAPES     008001300010020029PATTEO         008000800020009030E-COMMERCE NOVO000000000000000                  000000000000000                  000000000000000                  000000000000000                  000000000000000                  000000000000000048200010106012503880000
9160005SEAWAY CS.FORTE008001000010044012IGUATEMI       018003100100293016TACARUNA       012001400070088018SEAWAY RECIFE  008001100000020024SEAWAY NORTE   010001600060143025NEWMAR         012001400010036026RIO MAR        008001100000016028GUARARAPES     008001100010033029PATTEO         008000800000026030E-COMMERCE NOVO000000000000000                  000000000000000                  000000000000000                  000000000000000                  000000000000000                  000000000000000002602400022012600000000
9375005SEAWAY CS.FORTE008001200010025012IGUATEMI       018002200020127016TACARUNA       012000900020044018SEAWAY RECIFE  008001000000006024SEAWAY NORTE   010001800050081025NEWMAR         012001200000017026RIO MAR        008000700000014028GUARARAPES     008001100000034029PATTEO         008000800010018030E-COMMERCE NOVO000000000000000                  000000000000000                  000000000000000                  000000000000000                  000000000000000                  000000000000000001200000043010900010000
9520005SEAWAY CS.FORTE008000600000009012IGUATEMI       018002100020141016TACARUNA       012000900020037018SEAWAY RECIFE  008000600000011024SEAWAY NORTE   010000600020068025NEWMAR         012001100000012026RIO MAR        008001100010015028GUARARAPES     008000900020021029PATTEO         008000600000014030E-COMMERCE NOVO000000000000000                  000000000000000                  000000000000000                  000000000000000                  000000000000000                  000000000000000000900000001008500000000
9521005SEAWAY CS.FORTE008000200000010012IGUATEMI       018001400020077016TACARUNA       012000200000040018SEAWAY RECIFE  008000300000010024SEAWAY NORTE   010000500000048025NEWMAR         012000700010028026RIO MAR        008000700000018028GUARARAPES     008000700010045029PATTEO         008000200010018030E-COMMERCE NOVO000000000000000                  000000000000000                  000000000000000                  000000000000000                  000000000000000                  000000000000000000500000000004900000000
9826005SEAWAY CS.FORTE008001000020017012IGUATEMI       018002500030115016TACARUNA       012001400050045018SEAWAY RECIFE  008001100040013024SEAWAY NORTE   010001500000046025NEWMAR         012001300000014026RIO MAR        008001300020013028GUARARAPES     008001000020023029PATTEO         008000900040033030E-COMMERCE NOVO000000000000000                  000000000000000                  000000000000000                  000000000000000                  000000000000000                  000000000000000046600000310012003180000
9932005SEAWAY CS.FORTE008000800010006012IGUATEMI       018002300000035016TACARUNA       012001300010020018SEAWAY RECIFE  008001500000005024SEAWAY NORTE   010001200010023025NEWMAR         012001500000005026RIO MAR        008000800010006028GUARARAPES     008001000010007029PATTEO         008000800000005030E-COMMERCE NOVO000000000000000                  000000000000000                  000000000000000                  000000000000000                  000000000000000                  000000000000000046000620151011203050000
9972005SEAWAY CS.FORTE008000900020013012IGUATEMI       018002600050080016TACARUNA       012001300030032018SEAWAY RECIFE  008001300000010024SEAWAY NORTE   010001300010031025NEWMAR         012001700000027026RIO MAR        008001400000010028GUARARAPES     008001000000019029PATTEO         008000700020011030E-COMMERCE NOVO000000000000000                  000000000000000                  000000000000000                  000000000000000                  000000000000000                  000000000000000051000010076012204110000
3959005SEAWAY CS.FORTE009000100000028012IGUATEMI       006000500000004016TACARUNA       011000100000043018SEAWAY RECIFE  009000500000018024SEAWAY NORTE   006000900000001025NEWMAR         011000100000030026RIO MAR        009000000000021028GUARARAPES     009000400020028029PATTEO         009000000010014030E-COMMERCE NOVO010000000000000                  000000000000000                  000000000000000                  000000000000000                  000000000000000                  000000000000000000301220001002600000000
4673005SEAWAY CS.FORTE008000600010074012IGUATEMI       005000800000047016TACARUNA       011001000020151018SEAWAY RECIFE  008000800010064024SEAWAY NORTE   005000700000003025NEWMAR         011001100000118026RIO MAR        008000500030079028GUARARAPES     008000500000042029PATTEO         008000500000047030E-COMMERCE NOVO000000000000000                  000000000000000                  000000000000000                  000000000000000                  000000000000000                  000000000000000000700000039006500000000
4702005SEAWAY CS.FORTE008000300000048012IGUATEMI       005000500000018016TACARUNA       011000000000143018SEAWAY RECIFE  008000700000036024SEAWAY NORTE   005000600000002025NEWMAR         011000600000079026RIO MAR        008000600000054028GUARARAPES     008000900000051029PATTEO         008000300000042030E-COMMERCE NOVO000000000000000                  000000000000000                  000000000000000                  000000000000000                  000000000000000                  000000000000000000001200000004500000000
4771005SEAWAY CS.FORTE009000400000059012IGUATEMI       010000700000018016TACARUNA       012000300000148018SEAWAY RECIFE  009000600000029024SEAWAY NORTE   010000800000005025NEWMAR         012000800000067026RIO MAR        009000300000056028GUARARAPES     009000700000052029PATTEO         009000500000037030E-COMMERCE NOVO000000000000000                  000000000000000                  000000000000000                  000000000000000                  000000000000000                  000000000000000000101230000005100000011
5284005SEAWAY CS.FORTE009000800010001012IGUATEMI       006000700000000016TACARUNA       011000800050005018SEAWAY RECIFE  009000900000000024SEAWAY NORTE   006000600000000025NEWMAR         011001100010001026RIO MAR        009001000010001028GUARARAPES     009001000010001029PATTEO         009000800020002030E-COMMERCE NOVO010000000000000                  000000000000000                  000000000000000                  000000000000000                  000000000000000                  000000000000000006701200014007700180000
5285005SEAWAY CS.FORTE009000600000006012IGUATEMI       006000300000002016TACARUNA       011000300010020018SEAWAY RECIFE  009000700010005024SEAWAY NORTE   006000200000000025NEWMAR         011001100000005026RIO MAR        009000600010009028GUARARAPES     009000900010001029PATTEO         009000800000004030E-COMMERCE NOVO010000000000000                  000000000000000                  000000000000000                  000000000000000                  000000000000000                  000000000000000007701200000005500090000
5286005SEAWAY CS.FORTE009000900000002012IGUATEMI       006000500010002016TACARUNA       011000700030008018SEAWAY RECIFE  009000800000005024SEAWAY NORTE   006000500000000025NEWMAR         011001300000002026RIO MAR        009001000000004028GUARARAPES     009000900000001029PATTEO         009001000000000030E-COMMERCE NOVO010000000000000                  000000000000000                  000000000000000                  000000000000000                  000000000000000                  000000000000000004601200001007600150000
5287005SEAWAY CS.FORTE009000400010020012IGUATEMI       006000700000001016TACARUNA       011000500000024018SEAWAY RECIFE  009000500000006024SEAWAY NORTE   006000500000000025NEWMAR         011000600000011026RIO MAR        009000900010017028GUARARAPES     009001000010006029PATTEO         009001000010009030E-COMMERCE NOVO010000000000000                  000000000000000                  000000000000000                  000000000000000                  000000000000000                  000000000000000007100000104006100560000
9345005SEAWAY CS.FORTE009000100000020012IGUATEMI       006001000000001016TACARUNA       011000000000036018SEAWAY RECIFE  009000400000006024SEAWAY NORTE   006000600000000025NEWMAR         011000600000010026RIO MAR        009000400000011028GUARARAPES     009000700000003029PATTEO         009000800000010030E-COMMERCE NOVO010000000000000                  000000000000000                  000000000000000                  000000000000000                  000000000000000                  000000000000000000100900000004600000000
9359005SEAWAY CS.FORTE009000300000017012IGUATEMI       006000600000005016TACARUNA       011000100000023018SEAWAY RECIFE  009000600000003024SEAWAY NORTE   006000800000000025NEWMAR         011000500010018026RIO MAR        009000200000011028GUARARAPES     009000700000008029PATTEO         009000600000005030E-COMMERCE NOVO010000000000000                  000000000000000                  000000000000000                  000000000000000                  000000000000000                  000000000000000000100900000004400000001
0726005SEAWAY CS.FORTE008000400000142012IGUATEMI       008000300000065016TACARUNA       010000300010218018SEAWAY RECIFE  008000200000157024SEAWAY NORTE   008000300000059025NEWMAR         010000500000231026RIO MAR        008000700000097028GUARARAPES     008000800000099029PATTEO         008000300000073030E-COMMERCE NOVO000000000000000                  000000000000000                  000000000000000                  000000000000000                  000000000000000                  000000000000000000100080000003800000000
0840005SEAWAY CS.FORTE008000200000128012IGUATEMI       008000300000156016TACARUNA       010000300000459018SEAWAY RECIFE  008000400000131024SEAWAY NORTE   008000600000086025NEWMAR         010000500010252026RIO MAR        008000400000170028GUARARAPES     008000400000170029PATTEO         008000200000094030E-COMMERCE NOVO000000000000000                  000000000000000                  000000000000000                  000000000000000                  000000000000000                  000000000000000000101230000003300000000
0851005SEAWAY CS.FORTE008000400000153012IGUATEMI       008000300000095016TACARUNA       010000000000409018SEAWAY RECIFE  008000300000129024SEAWAY NORTE   008000200000044025NEWMAR         010000200000272026RIO MAR        008000200000160028GUARARAPES     008000300000170029PATTEO         008000300000114030E-COMMERCE NOVO000000000000000                  000000000000000                  000000000000000                  000000000000000                  000000000000000                  000000000000000000102420000002200000000
2749005SEAWAY CS.FORTE008000600000275012IGUATEMI       008001000000143016TACARUNA       010000700010637018SEAWAY RECIFE  008000500000235024SEAWAY NORTE   008001100010102025NEWMAR         010000800000412026RIO MAR        008000600000226028GUARARAPES     008000800000307029PATTEO         008000700010191030E-COMMERCE NOVO000000000000000                  000000000000000                  000000000000000                  000000000000000                  000000000000000                  000000000000000000301610084006800000000
2750005SEAWAY CS.FORTE008000600000076012IGUATEMI       008000300000046016TACARUNA       010000800000194018SEAWAY RECIFE  008000600000053024SEAWAY NORTE   008000600000029025NEWMAR         010000800000105026RIO MAR        008000500000065028GUARARAPES     008000600000069029PATTEO         008000600000043030E-COMMERCE NOVO000000000000000                  000000000000000                  000000000000000                  000000000000000                  000000000000000                  000000000000000000200010070005400000000
2871005SEAWAY CS.FORTE008000000000095012IGUATEMI       008000100000042016TACARUNA       010000000000229018SEAWAY RECIFE  008000000000070024SEAWAY NORTE   008000100000018025NEWMAR         010000000000121026RIO MAR        008000000000089028GUARARAPES     008000100000073029PATTEO         008000000000064030E-COMMERCE NOVO000000000000000                  000000000000000                  000000000000000                  000000000000000                  000000000000000                  000000000000000000001260000000300000000
2946005SEAWAY CS.FORTE008001000020259012IGUATEMI       008000600010192016TACARUNA       010001200020539018SEAWAY RECIFE  008000700010207024SEAWAY NORTE   008001200020191025NEWMAR         010000800030404026RIO MAR        008000800020230028GUARARAPES     008000000000235029PATTEO         008000800000149030E-COMMERCE NOVO000000000000000                  000000000000000                  000000000000000                  000000000000000                  000000000000000                  000000000000000001302460013007100000000
2976005SEAWAY CS.FORTE008000300020120012IGUATEMI       008001100020079016TACARUNA       010000900040355018SEAWAY RECIFE  008000700010140024SEAWAY NORTE   008001300020043025NEWMAR         010000700020267026RIO MAR        008000600010170028GUARARAPES     008001100020193029PATTEO         008000500000107030E-COMMERCE NOVO000000000000000                  000000000000000                  000000000000000                  000000000000000                  000000000000000                  000000000000000001600070219007200000000
3454005SEAWAY CS.FORTE008000600010121012IGUATEMI       008000400010100016TACARUNA       010000700010270018SEAWAY RECIFE  008000300020138024SEAWAY NORTE   008000700020058025NEWMAR         010000900000250026RIO MAR        008000700010126028GUARARAPES     008000500010167029PATTEO         008000400000111030E-COMMERCE NOVO000000000000000                  000000000000000                  000000000000000                  000000000000000                  000000000000000                  000000000000000000900290096005200000000
3580005SEAWAY CS.FORTE009001200010233012IGUATEMI       009000800010188016TACARUNA       013001500030546018SEAWAY RECIFE  009000500000173024SEAWAY NORTE   009001400010163025NEWMAR         013001600010382026RIO MAR        013001300000291028GUARARAPES     013001500040291029PATTEO         009000900010149030E-COMMERCE NOVO000000000000000                  000000000000000                  000000000000000                  000000000000000                  000000000000000                  000000000000000001201270017010700000000
3964005SEAWAY CS.FORTE009000100000058012IGUATEMI       009000200000015016TACARUNA       013000000000147018SEAWAY RECIFE  009000000000072024SEAWAY NORTE   009000200000013025NEWMAR         013000000000153026RIO MAR        013000100000133028GUARARAPES     013000000000131029PATTEO         009000000000053030E-COMMERCE NOVO000000000000000                  000000000000000                  000000000000000                  000000000000000                  000000000000000                  000000000000000000002440000000600000000
5280005SEAWAY CS.FORTE009001000000010012IGUATEMI       009001600060021016TACARUNA       013001900060037018SEAWAY RECIFE  009000400010012024SEAWAY NORTE   009001100020019025NEWMAR         013001900050031026RIO MAR        013001100020023028GUARARAPES     013001800050021029PATTEO         009000700030015030E-COMMERCE NOVO000000000000000                  000000000000000                  000000000000000                  000000000000000                  000000000000000                  000000000000000051401210151011503850000
5281005SEAWAY CS.FORTE009001000020013012IGUATEMI       009000600040017016TACARUNA       013000900040022018SEAWAY RECIFE  009000500010005024SEAWAY NORTE   009000500010014025NEWMAR         013001500010016026RIO MAR        013000300020014028GUARARAPES     013000900040015029PATTEO         009000300010011030E-COMMERCE NOVO000000000000000                  000000000000000                  000000000000000                  000000000000000                  000000000000000                  000000000000000044502400010006503320000
5283005SEAWAY CS.FORTE009001400010005012IGUATEMI       009001100020002016TACARUNA       013001500030012018SEAWAY RECIFE  009000900010001024SEAWAY NORTE   009001300030004025NEWMAR         013001500030006026RIO MAR        013001700000004028GUARARAPES     013001400000001029PATTEO         009000700020006030E-COMMERCE NOVO000000000000000                  000000000000000                  000000000000000                  000000000000000                  000000000000000                  000000000000000029100000115011502070000
3926005SEAWAY CS.FORTE008000800000013012IGUATEMI       008000300010024016TACARUNA       008000600010012018SEAWAY RECIFE  008000800000010024SEAWAY NORTE   008000500000009025NEWMAR         008000700000008026RIO MAR        008000800000009028GUARARAPES     008000600010012029PATTEO         008000700000009030E-COMMERCE NOVO008000000000000                  000000000000000                  000000000000000                  000000000000000                  000000000000000                  000000000000000000300010027005800000006
3927005SEAWAY CS.FORTE008000400000019012IGUATEMI       008000300000006016TACARUNA       008000200020028018SEAWAY RECIFE  008000400010011024SEAWAY NORTE   008000700000001025NEWMAR         008000400000024026RIO MAR        008000300010018028GUARARAPES     008000400000022029PATTEO         008000400000013030E-COMMERCE NOVO008000000000000                  000000000000000                  000000000000000                  000000000000000                  000000000000000                  000000000000000000401200000003500000000
3928005SEAWAY CS.FORTE008000800000018012IGUATEMI       008000400000028016TACARUNA       008000600010065018SEAWAY RECIFE  008001000000032024SEAWAY NORTE   008000400010023025NEWMAR         008000700000059026RIO MAR        008001200010035028GUARARAPES     008001000010021029PATTEO         008000900000020030E-COMMERCE NOVO008000000000000                  000000000000000                  000000000000000                  000000000000000                  000000000000000                  000000000000000000401240005007000000000
3929005SEAWAY CS.FORTE008000000000027012IGUATEMI       008000000000024016TACARUNA       008000000000020018SEAWAY RECIFE  008000000000013024SEAWAY NORTE   008000100000010025NEWMAR         008000000000018026RIO MAR        008000000000020028GUARARAPES     008000000000021029PATTEO         008000000000022030E-COMMERCE NOVO008000000000000                  000000000000000                  000000000000000                  000000000000000                  000000000000000                  000000000000000000001200000000100000000
4824005SEAWAY CS.FORTE009000800020075012IGUATEMI       006000500000042016TACARUNA       010001000040200018SEAWAY RECIFE  009000800010064024SEAWAY NORTE   004000300000039025NEWMAR         010001000010110026RIO MAR        009000500010066028GUARARAPES     008000200000071029PATTEO         008000400000051030E-COMMERCE NOVO000000000000000                  000000000000000                  000000000000000                  000000000000000                  000000000000000                  000000000000000014001260007005500750004
4825005SEAWAY CS.FORTE009000800000077012IGUATEMI       006000600010044016TACARUNA       010001100010151018SEAWAY RECIFE  009000400020092024SEAWAY NORTE   004000600010032025NEWMAR         010000700000103026RIO MAR        009000400000096028GUARARAPES     008000800000078029PATTEO         008000500000061030E-COMMERCE NOVO000000000000000                  000000000000000                  000000000000000                  000000000000000                  000000000000000                  000000000000000022400020129005901930001
4827005SEAWAY CS.FORTE009000300000045012IGUATEMI       006000500000020016TACARUNA       010000400000030018SEAWAY RECIFE  009000600000034024SEAWAY NORTE   004000600000006025NEWMAR         010000500000048026RIO MAR        009000900000041028GUARARAPES     008001200020046029PATTEO         008000600000031030E-COMMERCE NOVO000000000000000                  000000000000000                  000000000000000                  000000000000000                  000000000000000                  000000000000000000201340013005600000000
4867005SEAWAY CS.FORTE009001000000016012IGUATEMI       006000400000008016TACARUNA       010001200000048018SEAWAY RECIFE  009000500000022024SEAWAY NORTE   004000700000005025NEWMAR         010001000000046026RIO MAR        009000900000020028GUARARAPES     008000700000016029PATTEO         008000400000022030E-COMMERCE NOVO000000000000000                  000000000000000                  000000000000000                  000000000000000                  000000000000000                  000000000000000000200000031006800010000
4868005SEAWAY CS.FORTE009001000000019012IGUATEMI       006000600000017016TACARUNA       010000800000029018SEAWAY RECIFE  009000800000016024SEAWAY NORTE   004000900000009025NEWMAR         010000900010029026RIO MAR        009000900000021028GUARARAPES     008000800000011029PATTEO         008000800000014030E-COMMERCE NOVO000000000000000                  000000000000000                  000000000000000                  000000000000000                  000000000000000                  000000000000000000101200002007500000000
9074005SEAWAY CS.FORTE009000900010303005SEAWAY CS.FORTE009001000000269012IGUATEMI       006000900000106012IGUATEMI       006000900010091016TACARUNA       010000800030462016TACARUNA       010000800000415018SEAWAY RECIFE  009001100000304018SEAWAY RECIFE  009000500020266024SEAWAY NORTE   004000400000081024SEAWAY NORTE   004000500000072025NEWMAR         010001100030431025NEWMAR         010001400030378026RIO MAR        009000900000317026RIO MAR        008000800000285028GUARARAPES     008000300000292019900160234007001540003
9085005SEAWAY CS.FORTE009001000000170005SEAWAY CS.FORTE009000800000156012IGUATEMI       006000200000066012IGUATEMI       006000200000061016TACARUNA       010000500010318016TACARUNA       010001000000295018SEAWAY RECIFE  009000500000169018SEAWAY RECIFE  009000500000158024SEAWAY NORTE   004000500000060024SEAWAY NORTE   004000600000054025NEWMAR         010001500010304025NEWMAR         010001000010281026RIO MAR        009000500010214026RIO MAR        008001100020194028GUARARAPES     008000400000202010501880024005800680004
1981005SEAWAY CS.FORTE009000300000103012IGUATEMI       006000600000104016TACARUNA       012000400010293018SEAWAY RECIFE  009000400000133024SEAWAY NORTE   006000400010055025NEWMAR         013000700000194026RIO MAR        009000500000048028GUARARAPES     009000700010099029PATTEO         009000600000083030E-COMMERCE NOVO000000000000000                  000000000000000                  000000000000000                  000000000000000                  000000000000000                  000000000000000000302020010004600000000
2949005SEAWAY CS.FORTE009001300020185012IGUATEMI       006001000010119016TACARUNA       012001500070465018SEAWAY RECIFE  009001100030154024SEAWAY NORTE   006000500000034025NEWMAR         013001200030264026RIO MAR        009001200010127028GUARARAPES     009001200040193029PATTEO         009000900010119030E-COMMERCE NOVO000000000000000                  000000000000000                  000000000000000                  000000000000000                  000000000000000                  000000000000000003000090189009900080000
3779005SEAWAY CS.FORTE009000100000058012IGUATEMI       006000400000042016TACARUNA       012000000000151018SEAWAY RECIFE  009000300000046024SEAWAY NORTE   006000500000018025NEWMAR         013000500010060026RIO MAR        009000500000040028GUARARAPES     009000300000019029PATTEO         009000600000032030E-COMMERCE NOVO000000000000000                  000000000000000                  000000000000000                  000000000000000                  000000000000000                  000000000000000000102000000003200000000
3802005SEAWAY CS.FORTE009000200000043012IGUATEMI       006000100000036016TACARUNA       012000100000090018SEAWAY RECIFE  009000500000018024SEAWAY NORTE   006000500000025025NEWMAR         013000600020059026RIO MAR        009000400000036028GUARARAPES     009000300000037029PATTEO         009000300000027030E-COMMERCE NOVO000000000000000                  000000000000000                  000000000000000                  000000000000000                  000000000000000                  000000000000000000201810000003000000000
3820005SEAWAY CS.FORTE009001300000147012IGUATEMI       006001200030094016TACARUNA       012001700030426018SEAWAY RECIFE  009001200030155024SEAWAY NORTE   006000200000046025NEWMAR         013001600000215026RIO MAR        009001200020101028GUARARAPES     009000800020130029PATTEO         009001000010102030E-COMMERCE NOVO000000000000000                  000000000000000                  000000000000000                  000000000000000                  000000000000000                  000000000000000002100010204010200070000
5279005SEAWAY CS.FORTE009000900000015012IGUATEMI       006000500010009016TACARUNA       012000900060040018SEAWAY RECIFE  009001000000010024SEAWAY NORTE   006000600000003025NEWMAR         013001400000017026RIO MAR        009000700000016028GUARARAPES     009000700000012029PATTEO         009000700000008030E-COMMERCE NOVO000000000000000                  000000000000000                  000000000000000                  000000000000000                  000000000000000                  000000000000000036801000100007401910000
5303005SEAWAY CS.FORTE009000800020002012IGUATEMI       006000700000000016TACARUNA       012001500040004018SEAWAY RECIFE  009000900000000024SEAWAY NORTE   006000700000000025NEWMAR         013001600000000026RIO MAR        009000900010001028GUARARAPES     009001000020002029PATTEO         009001000000000030E-COMMERCE NOVO000000000000000                  000000000000000                  000000000000000                  000000000000000                  000000000000000                  000000000000000026400000070009102280000
5304005SEAWAY CS.FORTE009000900020003012IGUATEMI       006000700000000016TACARUNA       012001200050007018SEAWAY RECIFE  009000900000001024SEAWAY NORTE   006000700010001025NEWMAR         013001700060007026RIO MAR        009000800020002028GUARARAPES     009000900020002029PATTEO         009001000030003030E-COMMERCE NOVO000000000000000                  000000000000000                  000000000000000                  000000000000000                  000000000000000                  000000000000000037302000022008802600000
9646005SEAWAY CS.FORTE009001200010058012IGUATEMI       006000800000033016TACARUNA       012001600060107018SEAWAY RECIFE  009001000010036024SEAWAY NORTE   006000200010010025NEWMAR         013001700000057026RIO MAR        009001100000027028GUARARAPES     009001000010044029PATTEO         009000700020016030E-COMMERCE NOVO000000000000000                  000000000000000                  000000000000000                  000000000000000                  000000000000000                  000000000000000001700000229009300050000
9649005SEAWAY CS.FORTE009000700020034012IGUATEMI       006000600000031016TACARUNA       012001800030095018SEAWAY RECIFE  009001000010035024SEAWAY NORTE   006000300000010025NEWMAR         013001500020041026RIO MAR        009000600000029028GUARARAPES     009001100010029029PATTEO         009001100000022030E-COMMERCE NOVO000000000000000                  000000000000000                  000000000000000                  000000000000000                  000000000000000                  000000000000000000900000134008700000000
9856005SEAWAY CS.FORTE009000600030012012IGUATEMI       006000500010007016TACARUNA       012000700050017018SEAWAY RECIFE  009000900000010024SEAWAY NORTE   006000700010008025NEWMAR         013001200010016026RIO MAR        009000500000007028GUARARAPES     009000500010012029PATTEO         009000200030010030E-COMMERCE NOVO000000000000000                  000000000000000                  000000000000000                  000000000000000                  000000000000000                  000000000000000041402000020005803130000
9963005SEAWAY CS.FORTE009000500000007012IGUATEMI       006000500000005016TACARUNA       012001100030021018SEAWAY RECIFE  009001100000002024SEAWAY NORTE   006000900020002025NEWMAR         013000700020007026RIO MAR        009000700000003028GUARARAPES     009000700000003029PATTEO         009000700000005030E-COMMERCE NOVO000000000000000                  000000000000000                  000000000000000                  000000000000000                  000000000000000                  000000000000000016800000051006901260000
4528005SEAWAY CS.FORTE009000500010042012IGUATEMI       006000400000022016TACARUNA       012000300000145018SEAWAY RECIFE  009001000000048024SEAWAY NORTE   006001000000012025NEWMAR         013000400010078026RIO MAR        009000000000068028GUARARAPES     009000400000041029PATTEO         009000200010046030E-COMMERCE NOVO000000000000000                  000000000000000                  000000000000000                  000000000000000                  000000000000000                  000000000000000000302050000004200000000
4549005SEAWAY CS.FORTE009000400010258012IGUATEMI       006000600000115016TACARUNA       012000300040737018SEAWAY RECIFE  009000200010275024SEAWAY NORTE   006000500010024025NEWMAR         013000400010680026RIO MAR        009000400000361028GUARARAPES     009000200000267029PATTEO         009000300010180030E-COMMERCE NOVO000000000000010                  000000000000000                  000000000000000                  000000000000000                  000000000000000                  000000000000000000902010002003300000000
4634005SEAWAY CS.FORTE009000300000196012IGUATEMI       006000700010112016TACARUNA       012000400000398018SEAWAY RECIFE  009000900000142024SEAWAY NORTE   006000500000016025NEWMAR         013000400000349026RIO MAR        009000200000217028GUARARAPES     009000100010192029PATTEO         009000100010179030E-COMMERCE NOVO000000000000013                  000000000000000                  000000000000000                  000000000000000                  000000000000000                  000000000000000000302050000003600000000
4664005SEAWAY CS.FORTE009001500040280005SEAWAY CS.FORTE009000500050217012IGUATEMI       006000800020172012IGUATEMI       006000600000150016TACARUNA       012001800040566016TACARUNA       012001800090457018SEAWAY RECIFE  009001300040232018SEAWAY RECIFE  009000500000195024SEAWAY NORTE   006000100000048024SEAWAY NORTE   006000400000037025NEWMAR         013001600050481025NEWMAR         013001000030414026RIO MAR        009001200040268026RIO MAR        009000900020225028GUARARAPES     009001700030393030500110316011002360000
4678005SEAWAY CS.FORTE009000400000151012IGUATEMI       006000100010052016TACARUNA       012000400010289018SEAWAY RECIFE  009000100000131024SEAWAY NORTE   006000500010015025NEWMAR         013000200000243026RIO MAR        009000200020201028GUARARAPES     009000200000195029PATTEO         009000100000130030E-COMMERCE NOVO000000000000000                  000000000000000                  000000000000000                  000000000000000                  000000000000000                  000000000000000000502020000002200000000
4690005SEAWAY CS.FORTE009000300010196005SEAWAY CS.FORTE009001400020167012IGUATEMI       006000400010139012IGUATEMI       006000800020115016TACARUNA       012000400010463016TACARUNA       012001500020396018SEAWAY RECIFE  009000400000159018SEAWAY RECIFE  009000900010148024SEAWAY NORTE   006000200000058024SEAWAY NORTE   006000700010043025NEWMAR         013000900000367025NEWMAR         013001600010330026RIO MAR        009000500000200026RIO MAR        009001100000168028GUARARAPES     009000100020265000502060000003200000000
4769005SEAWAY CS.FORTE009000600030139012IGUATEMI       006000700000045016TACARUNA       012001200020390018SEAWAY RECIFE  009000700010149024SEAWAY NORTE   006000400010045025NEWMAR         013001300010272026RIO MAR        009000400010219028GUARARAPES     009000800010128029PATTEO         009000500000136030E-COMMERCE NOVO000000000000006                  000000000000000                  000000000000000                  000000000000000                  000000000000000                  000000000000000001002040000006600000000
4965005SEAWAY CS.FORTE009001500020079012IGUATEMI       006000800000017016TACARUNA       012001600090126018SEAWAY RECIFE  009001300040046024SEAWAY NORTE   006000400000007025NEWMAR         013001700060074026RIO MAR        009001200030053028GUARARAPES     009001200020074029PATTEO         009000800030057030E-COMMERCE NOVO000002400000002                  000000000000000                  000000000000000                  000000000000000                  000000000000000                  000000000000000002900010129012900000000
4990005SEAWAY CS.FORTE009000600020035012IGUATEMI       006000900010025016TACARUNA       012001600030083018SEAWAY RECIFE  009001300020046024SEAWAY NORTE   006000500000009025NEWMAR         013001900050096026RIO MAR        009000900070074028GUARARAPES     009001100050075029PATTEO         009001100050082030E-COMMERCE NOVO000001200010014                  000000000000000                  000000000000000                  000000000000000                  000000000000000                  000000000000000003101990006011100000000
5257005SEAWAY CS.FORTE009000500020014012IGUATEMI       006000500000002016TACARUNA       012000600000032018SEAWAY RECIFE  009000500010023024SEAWAY NORTE   006000700000002025NEWMAR         013000900020023026RIO MAR        009000700010028028GUARARAPES     009000700020011029PATTEO         009000700010012030E-COMMERCE NOVO000001400000001                  000000000000000                  000000000000000                  000000000000000                  000000000000000                  000000000000000031301000000007201820000
5275005SEAWAY CS.FORTE009000800010001012IGUATEMI       006000700000000016TACARUNA       012000900070010018SEAWAY RECIFE  009000800010001024SEAWAY NORTE   006000700010001025NEWMAR         013001500000001026RIO MAR        009001000010001028GUARARAPES     009000900010002029PATTEO         009000900000000030E-COMMERCE NOVO000000000000000                  000000000000000                  000000000000000                  000000000000000                  000000000000000                  000000000000000020700010194008201050000
5276005SEAWAY CS.FORTE009000700030028012IGUATEMI       006000500000004016TACARUNA       012001300070049018SEAWAY RECIFE  009000500000015024SEAWAY NORTE   006000500000004025NEWMAR         013001300010029026RIO MAR        009000700000021028GUARARAPES     009000900020013029PATTEO         009000900020014030E-COMMERCE NOVO000001400000000                  000000000000000                  000000000000000                  000000000000000                  000000000000000                  000000000000000034100000053008702800000
5306005SEAWAY CS.FORTE009000900000000012IGUATEMI       006000700000000016TACARUNA       012001000000002018SEAWAY RECIFE  009000800000001024SEAWAY NORTE   006000700000000025NEWMAR         013001100000006026RIO MAR        009000800000004028GUARARAPES     009000900000000029PATTEO         009000800000004030E-COMMERCE NOVO000001400000000                  000000000000000                  000000000000000                  000000000000000                  000000000000000                  000000000000000000100000020009100000000
5368005SEAWAY CS.FORTE009000500040004012IGUATEMI       006001200030004016TACARUNA       012000800020009018SEAWAY RECIFE  009000700010002024SEAWAY NORTE   006000900020002025NEWMAR         013000900040008026RIO MAR        009000800010002028GUARARAPES     009001000020005029PATTEO         009000600030004030E-COMMERCE NOVO000000000000000                  000000000000000                  000000000000000                  000000000000000                  000000000000000                  000000000000000032802000147007401390000
5369005SEAWAY CS.FORTE009000300030006012IGUATEMI       006000600020003016TACARUNA       012000900060014018SEAWAY RECIFE  009000600030004024SEAWAY NORTE   006000700010001025NEWMAR         013000700050007026RIO MAR        009000600040006028GUARARAPES     009001000040007029PATTEO         009000400030007030E-COMMERCE NOVO000001400000000                  000000000000000                  000000000000000                  000000000000000                  000000000000000                  000000000000000040503990022007202530000
7132005SEAWAY CS.FORTE009000000000015012IGUATEMI       006000500000001016TACARUNA       012000400000027018SEAWAY RECIFE  009000400000038024SEAWAY NORTE   006000200000000025NEWMAR         013000200000061026RIO MAR        009000100000038028GUARARAPES     009000300000017029PATTEO         009000000000011030E-COMMERCE NOVO000000000000000                  000000000000000                  000000000000000                  000000000000000                  000000000000000                  000000000000000000001000000002100000000
7338005SEAWAY CS.FORTE009000500010225012IGUATEMI       006000300010073016TACARUNA       012000100000454018SEAWAY RECIFE  009000900000155024SEAWAY NORTE   006000500000007025NEWMAR         013000600010422026RIO MAR        009000100010233028GUARARAPES     009000200010198029PATTEO         009000100000164030E-COMMERCE NOVO000000000000000                  000000000000000                  000000000000000                  000000000000000                  000000000000000                  000000000000000000500010000003300000000
7495005SEAWAY CS.FORTE009001000020243012IGUATEMI       006000700010107016TACARUNA       012002000040584018SEAWAY RECIFE  009001200030142024SEAWAY NORTE   006000300000025025NEWMAR         013001400020496026RIO MAR        009001000020279028GUARARAPES     009001300000132029PATTEO         009000900020178030E-COMMERCE NOVO000000000000000                  000000000000000                  000000000000000                  000000000000000                  000000000000000                  000000000000000001600150088009800000002
7496005SEAWAY CS.FORTE009000900000067012IGUATEMI       006000600000041016TACARUNA       012000600000163018SEAWAY RECIFE  009000900000110024SEAWAY NORTE   006000800000012025NEWMAR         013000800000197026RIO MAR        009000700000182028GUARARAPES     009001200000074029PATTEO         009000400010144030E-COMMERCE NOVO000000000000000                  000000000000000                  000000000000000                  000000000000000                  000000000000000                  000000000000000000100040012006900000000
7501005SEAWAY CS.FORTE009000000000104012IGUATEMI       006000100000038016TACARUNA       012000000000322018SEAWAY RECIFE  009000200000041024SEAWAY NORTE   006000900010010025NEWMAR         013000000000100026RIO MAR        009000000000133028GUARARAPES     009000000000091029PATTEO         009000000000104030E-COMMERCE NOVO000000300000012                  000000000000000                  000000000000000                  000000000000000                  000000000000000                  000000000000000000100040000001500000000
1328005SEAWAY CS.FORTE009000000000000012IGUATEMI       006000000000000016TACARUNA       012000000000000018SEAWAY RECIFE  009000000000000024SEAWAY NORTE   006000100000000025NEWMAR         013000000000000026RIO MAR        009000000000000028GUARARAPES     009000000000002029PATTEO         009000000000000030E-COMMERCE NOVO000000000000000                  000000000000000                  000000000000000                  000000000000000                  000000000000000                  000000000000000000000600000000100000000
4617005SEAWAY CS.FORTE008000600010051012IGUATEMI       006000600010051016TACARUNA       010000600010100018SEAWAY RECIFE  008000400050088024SEAWAY NORTE   006000300000005025NEWMAR         010000100000112026RIO MAR        008000600010120028GUARARAPES     008000000000041029PATTEO         008000800000055030E-COMMERCE NOVO000000000000005                  000000000000000                  000000000000000                  000000000000000                  000000000000000                  000000000000000000900910003004000000000
4618005SEAWAY CS.FORTE008000500000004012IGUATEMI       006000500000002016TACARUNA       010000700000012018SEAWAY RECIFE  008000300000006024SEAWAY NORTE   006000400000001025NEWMAR         010000300000010026RIO MAR        008000300000009028GUARARAPES     008000300000005029PATTEO         008000400000006030E-COMMERCE NOVO000000000000000                  000000000000000                  000000000000000                  000000000000000                  000000000000000                  000000000000000000000000034003700000000
4619005SEAWAY CS.FORTE008000400000004012IGUATEMI       006000800000000016TACARUNA       010000400000007018SEAWAY RECIFE  008001100000016024SEAWAY NORTE   006000400000000025NEWMAR         010000400000009026RIO MAR        008000400000009028GUARARAPES     008000400000004029PATTEO         008000400000005030E-COMMERCE NOVO000000000000000                  000000000000000                  000000000000000                  000000000000000                  000000000000000                  000000000000000000000000023004700000000
4620005SEAWAY CS.FORTE008001000030167012IGUATEMI       006000600000029016TACARUNA       010001700100312018SEAWAY RECIFE  008001200060145024SEAWAY NORTE   006000400000023025NEWMAR         010001000030372026RIO MAR        008001200020203028GUARARAPES     008001100010111029PATTEO         008000600070115030E-COMMERCE NOVO000000000000007                  000000000000000                  000000000000000                  000000000000000                  000000000000000                  000000000000000037100040148008803040005
