2929005SEAWAY CS.FORTE014000200010061012IGUATEMI       017000000000570016TACARUNA       016000000010292018SEAWAY RECIFE  012000000000085024SEAWAY NORTE   015000000000257025NEWMAR         015000700000188026RIO MAR        014000300000081028GUARARAPES     015000100000267029PATTEO         012000200000099030E-COMMERCE NOVO011000000000000                  000000000000000                  000000000000000                  000000000000000                  000000000000000                  000000000000000000200070000001500000000
2931005SEAWAY CS.FORTE014000700010078012IGUATEMI       017000000000685016TACARUNA       016000800200450018SEAWAY RECIFE  012000300070132024SEAWAY NORTE   015000400050517025NEWMAR         015000500070314026RIO MAR        014000400010187028GUARARAPES     015000200040329029PATTEO         012000400010099030E-COMMERCE NOVO011000900020025                  000000000000000                  000000000000000                  000000000000000                  000000000000000                  000000000000000004800140000004600000000
3478005SEAWAY CS.FORTE014000800010119012IGUATEMI       017000200150514016TACARUNA       016000500200534018SEAWAY RECIFE  012000700040167024SEAWAY NORTE   015001300020159025NEWMAR         015000300130322026RIO MAR        014000800120184028GUARARAPES     015000100150313029PATTEO         012000700050163030E-COMMERCE NOVO011000000000000                  000000000000000                  000000000000000                  000000000000000                  000000000000000                  000000000000000008700040000005400000000
3528005SEAWAY CS.FORTE014000600000068012IGUATEMI       017000000030369016TACARUNA       016000200020214018SEAWAY RECIFE  012000400020072024SEAWAY NORTE   015000300020239025NEWMAR         015000400020162026RIO MAR        014000200010082028GUARARAPES     015000100030104029PATTEO         012000400020079030E-COMMERCE NOVO011000000000000                  000000000000000                  000000000000000                  000000000000000                  000000000000000                  000000000000000001700030000002600000000
3732005SEAWAY CS.FORTE014000100000077012IGUATEMI       017000100000389016TACARUNA       016000000000329018SEAWAY RECIFE  012000000000123024SEAWAY NORTE   015000000000226025NEWMAR         015000100000239026RIO MAR        014000100000155028GUARARAPES     015000000000243029PATTEO         012000200000091030E-COMMERCE NOVO011000000000000                  000000000000000                  000000000000000                  000000000000000                  000000000000000                  000000000000000000200150000000600000000
3896005SEAWAY CS.FORTE014000700020060012IGUATEMI       017000100040167016TACARUNA       016000000050231018SEAWAY RECIFE  012000800060112024SEAWAY NORTE   015000500080282025NEWMAR         015000400120152026RIO MAR        014000300030100028GUARARAPES     015000100140217029PATTEO         012000400030080030E-COMMERCE NOVO011001200040048                  000000000000000                  000000000000000                  000000000000000                  000000000000000                  000000000000000006100090000004500000000
3930005SEAWAY CS.FORTE014000800140139012IGUATEMI       017000100350583016TACARUNA       016000600150381018SEAWAY RECIFE  012000200070184024SEAWAY NORTE   015000200130282025NEWMAR         015000400210378026RIO MAR        014000500060194028GUARARAPES     015000000110397029PATTEO         012000000080111030E-COMMERCE NOVO011000200000020                  000000000000000                  000000000000000                  000000000000000                  000000000000000                  000000000000000073600100000003003610005
9162005SEAWAY CS.FORTE014000900070035005SEAWAY CS.FORTE014001500010002012IGUATEMI       017000700400286012IGUATEMI       017002100050017016TACARUNA       016000800300126016TACARUNA       016001600030006018SEAWAY RECIFE  012000700080043018SEAWAY RECIFE  012001200000001024SEAWAY NORTE   015001100170170024SEAWAY NORTE   015002000050010025NEWMAR         015000400160109025NEWMAR         015001900030007026RIO MAR        014000600040045026RIO MAR        014001800010006028GUARARAPES     015000700090142013700030000006200000009
9418005SEAWAY CS.FORTE014000700090043012IGUATEMI       017000100200219016TACARUNA       016001100250108018SEAWAY RECIFE  012000700170061024SEAWAY NORTE   015000800280085025NEWMAR         015000400170048026RIO MAR        014000600140067028GUARARAPES     015000600280102029PATTEO         012000600090050030E-COMMERCE NOVO011000000000000                  000000000000000                  000000000000000                  000000000000000                  000000000000000                  000000000000000016700020000005600000000
9771005SEAWAY CS.FORTE014001500010015012IGUATEMI       017000200030089016TACARUNA       016000600050034018SEAWAY RECIFE  012000500020019024SEAWAY NORTE   015000900020020025NEWMAR         015000600030030026RIO MAR        014000900060024028GUARARAPES     015000300020031029PATTEO         012000500000018030E-COMMERCE NOVO011000000000000                  000000000000000                  000000000000000                  000000000000000                  000000000000000                  000000000000000002401010000006000000000
9791005SEAWAY CS.FORTE014000800000011012IGUATEMI       017000000000100016TACARUNA       016000100010052018SEAWAY RECIFE  012000200030026024SEAWAY NORTE   015000000000047025NEWMAR         015000000010028026RIO MAR        014000200010027028GUARARAPES     015000000010039029PATTEO         012000200000025030E-COMMERCE NOVO011000100000022                  000000000000000                  000000000000000                  000000000000000                  000000000000000                  000000000000000000701000000001600000000
2870005SEAWAY CS.FORTE008000000110042012IGUATEMI       008001500010011016TACARUNA       012000000270184018SEAWAY RECIFE  008000000140059024SEAWAY NORTE   008001000000004025NEWMAR         012000100290117026RIO MAR        009000200120064028GUARARAPES     010000600200066029PATTEO         008000000100038030E-COMMERCE NOVO000000000000000                  000000000000000                  000000000000000                  000000000000000                  000000000000000                  000000000000000012400000000003400000000
3620005SEAWAY CS.FORTE008000000000114012IGUATEMI       008000300000028016TACARUNA       012000000000232018SEAWAY RECIFE  008000000000109024SEAWAY NORTE   008000800000005025NEWMAR         012000000050149026RIO MAR        009000100010125028GUARARAPES     010000100020066029PATTEO         008000000010077030E-COMMERCE NOVO000000000000000                  000000000000000                  000000000000000                  000000000000000                  000000000000000                  000000000000000000901310000001300000020
3791005SEAWAY CS.FORTE008000100150121012IGUATEMI       008000300030011016TACARUNA       012000000020181018SEAWAY RECIFE  008000000090094024SEAWAY NORTE   008001100000001025NEWMAR         012000000120163026RIO MAR        009000000090094028GUARARAPES     010000300140065029PATTEO         008000100080063030E-COMMERCE NOVO000000000000000                  000000000000000                  000000000000000                  000000000000000                  000000000000000                  000000000000000007200030000001900000000
3796005SEAWAY CS.FORTE008000000020087012IGUATEMI       008000400010011016TACARUNA       012000000000205018SEAWAY RECIFE  008000000010073024SEAWAY NORTE   008000900000007025NEWMAR         012000000000098026RIO MAR        009000200020061028GUARARAPES     010000100010041029PATTEO         008000100020052030E-COMMERCE NOVO000000000000000                  000000000000000                  000000000000000                  000000000000000                  000000000000000                  000000000000000000900000000001700000000
3941005SEAWAY CS.FORTE008000000020059012IGUATEMI       008000700030016016TACARUNA       012000000020104018SEAWAY RECIFE  008000100030052024SEAWAY NORTE   008000800000003025NEWMAR         012000200070067026RIO MAR        009000400060055028GUARARAPES     010000600020020029PATTEO         008000200000034030E-COMMERCE NOVO000000000000000                  000000000000000                  000000000000000                  000000000000000                  000000000000000                  000000000000000002501230000003000000000
6153005SEAWAY CS.FORTE008000200020087012IGUATEMI       008001100000005016TACARUNA       012000000090230018SEAWAY RECIFE  008000100060063024SEAWAY NORTE   008000600000005025NEWMAR         012000300120090026RIO MAR        009000300020064028GUARARAPES     010001000030033029PATTEO         008000300030033030E-COMMERCE NOVO000000000000000                  000000000000000                  000000000000000                  000000000000000                  000000000000000                  000000000000000003700020000003900000000
6155005SEAWAY CS.FORTE008000100000090012IGUATEMI       008000600000025016TACARUNA       012000000000236018SEAWAY RECIFE  008000000010116024SEAWAY NORTE   008000800000003025NEWMAR         012000000000157026RIO MAR        009000000000091028GUARARAPES     010000100010052029PATTEO         008000100000066030E-COMMERCE NOVO000000000000000                  000000000000000                  000000000000000                  000000000000000                  000000000000000                  000000000000000000200020000001700000000
9219005SEAWAY CS.FORTE008000000130033012IGUATEMI       008000200020004016TACARUNA       012000000180045018SEAWAY RECIFE  008000100190036024SEAWAY NORTE   008000300010001025NEWMAR         012000000180048026RIO MAR        009000200080032028GUARARAPES     010000300080021029PATTEO         008000100070017030E-COMMERCE NOVO000000000000000                  000000000000000                  000000000000000                  000000000000000                  000000000000000                  000000000000000009400000001001200000000
0771005SEAWAY CS.FORTE008000500080082012IGUATEMI       019000100220766016TACARUNA       012000500060276018SEAWAY RECIFE  008000600010081024SEAWAY NORTE   008000200130404025NEWMAR         012001000110160026RIO MAR        008000600030075028GUARARAPES     008000100130208029PATTEO         008000300050094030E-COMMERCE NOVO000000000000000                  000000000000000                  000000000000000                  000000000000000                  000000000000000                  000000000000000008200100000003900000000
1619005SEAWAY CS.FORTE008002300120102012IGUATEMI       019003600320216016TACARUNA       014002900190207018SEAWAY RECIFE  008002700170108024SEAWAY NORTE   008002100110105025NEWMAR         014002900210145026RIO MAR        008002900100096028GUARARAPES     008002900100103029PATTEO         008003000050086030E-COMMERCE NOVO006000000000000                  000000000000000                  000000000000000                  000000000000000                  000000000000000                  000000000000000013700060000025300000000
1622005SEAWAY CS.FORTE008002100060078012IGUATEMI       019001200170223016TACARUNA       014003100220138018SEAWAY RECIFE  008002600140080024SEAWAY NORTE   008002000110109025NEWMAR         014003000250135026RIO MAR        008002300120085028GUARARAPES     008002500080094029PATTEO         008001900080062030E-COMMERCE NOVO006000000000000                  000000000000000                  000000000000000                  000000000000000                  000000000000000                  000000000000000012300040000020700000000
2866005SEAWAY CS.FORTE008000300020067012IGUATEMI       019000400090726016TACARUNA       012001300100296018SEAWAY RECIFE  008000400000040024SEAWAY NORTE   008000200030442025NEWMAR         012000700020060026RIO MAR        008000400010054028GUARARAPES     008000300070190029PATTEO         008000400010070030E-COMMERCE NOVO000000000000000                  000000000000000                  000000000000000                  000000000000000                  000000000000000                  000000000000000003500050000004400000000
2893005SEAWAY CS.FORTE008000100000095012IGUATEMI       019000100050431016TACARUNA       012000100020263018SEAWAY RECIFE  008000300110099024SEAWAY NORTE   008000000010239025NEWMAR         012000300140175026RIO MAR        008000100010089028GUARARAPES     008000100040164029PATTEO         008000100010086030E-COMMERCE NOVO000000000000000                  000000000000000                  000000000000000                  000000000000000                  000000000000000                  000000000000000003900150000001200000000
2902005SEAWAY CS.FORTE008000300000081012IGUATEMI       019000100000830016TACARUNA       012000600010129018SEAWAY RECIFE  008000200000085024SEAWAY NORTE   008000000000447025NEWMAR         012000200000090026RIO MAR        008000300000057028GUARARAPES     008000100030133029PATTEO         008000200000083030E-COMMERCE NOVO000000000000000                  000000000000000                  000000000000000                  000000000000000                  000000000000000                  000000000000000000401860000002000000000
2995005SEAWAY CS.FORTE008001200070098012IGUATEMI       019000500390865016TACARUNA       012001900110311018SEAWAY RECIFE  008001100130086024SEAWAY NORTE   008001000270420025NEWMAR         012001500080186026RIO MAR        008000800040089028GUARARAPES     008000300100187029PATTEO         008001300060086030E-COMMERCE NOVO000000000000000                  000000000000000                  000000000000000                  000000000000000                  000000000000000                  000000000000000012500060000009600000000
3413005SEAWAY CS.FORTE008000200030036012IGUATEMI       019000400090100016TACARUNA       014000000010139018SEAWAY RECIFE  008000000010035024SEAWAY NORTE   008000200030018025NEWMAR         014000100050060026RIO MAR        008000000050036028GUARARAPES     008000200030040029PATTEO         008000300020036030E-COMMERCE NOVO006000000000005                  000000000000000                  000000000000000                  000000000000000                  000000000000000                  000000000000000003200000000001400000000
3598005SEAWAY CS.FORTE008001200120105012IGUATEMI       019002100550751016TACARUNA       012001300170330018SEAWAY RECIFE  008002000170132024SEAWAY NORTE   008000900520434025NEWMAR         012000500150169026RIO MAR        008002500190099028GUARARAPES     008001600220201029PATTEO         008000600150111030E-COMMERCE NOVO000000000000000                  000000000000000                  000000000000000                  000000000000000                  000000000000000                  000000000000000022400040000012700000000
3617005SEAWAY CS.FORTE008000300050153012IGUATEMI       019001700090548016TACARUNA       014000100000342018SEAWAY RECIFE  008000300120176024SEAWAY NORTE   008002700030402025NEWMAR         014000400060261026RIO MAR        008000500030176028GUARARAPES     008000200020298029PATTEO         008000200010118030E-COMMERCE NOVO006000000000000                  000000000000000                  000000000000000                  000000000000000                  000000000000000                  000000000000000004100420190006400000040
3825005SEAWAY CS.FORTE008000600090172012IGUATEMI       019001000330356016TACARUNA       014001100140351018SEAWAY RECIFE  008001100180145024SEAWAY NORTE   008000600250158025NEWMAR         014001000280199026RIO MAR        008000500170174028GUARARAPES     008000300160167029PATTEO         008000400130095030E-COMMERCE NOVO006000000000005                  000000000000000                  000000000000000                  000000000000000                  000000000000000                  000000000000000017300070000006600000000
3830005SEAWAY CS.FORTE008000600110193012IGUATEMI       019000300120155016TACARUNA       014000200060376018SEAWAY RECIFE  008000100110157024SEAWAY NORTE   008000300070172025NEWMAR         014000800040216026RIO MAR        008000200050216028GUARARAPES     008000200070190029PATTEO         008000000030094030E-COMMERCE NOVO006001500000001                  000000000000000                  000000000000000                  000000000000000                  000000000000000                  000000000000000006602470000004200000000
3832005SEAWAY CS.FORTE008000700100095012IGUATEMI       019000200360579016TACARUNA       014000600360273018SEAWAY RECIFE  008000700120085024SEAWAY NORTE   008000100230415025NEWMAR         014000900240181026RIO MAR        008000500110098028GUARARAPES     008000400190218029PATTEO         008000200060089030E-COMMERCE NOVO006000000000000                  000000000000000                  000000000000000                  000000000000000                  000000000000000                  000000000000000017700050000004300000000
3845005SEAWAY CS.FORTE008001800110116012IGUATEMI       019002300140101016TACARUNA       014003700380356018SEAWAY RECIFE  008003300290202024SEAWAY NORTE   008002200130439025NEWMAR         014003400350319026RIO MAR        008003400220210028GUARARAPES     008002900190200029PATTEO         008002600160143030E-COMMERCE NOVO006000400050064                  000000000000000                  000000000000000                  000000000000000                  000000000000000                  000000000000000020200490068026000000000
3847005SEAWAY CS.FORTE008002400260122012IGUATEMI       019003901280984016TACARUNA       014002700740364018SEAWAY RECIFE  008002100350167024SEAWAY NORTE   008004100810418025NEWMAR         014002800500232026RIO MAR        008002100320126028GUARARAPES     008001900450243029PATTEO         008001200420144030E-COMMERCE NOVO006000000000000                  000000000000000                  000000000000000                  000000000000000                  000000000000000                  000000000000000051300370006023200000000
3920005SEAWAY CS.FORTE008000200120109012IGUATEMI       019000100150542016TACARUNA       014000700120238018SEAWAY RECIFE  008000500100070024SEAWAY NORTE   008000300070328025NEWMAR         014001100110126026RIO MAR        008000700050088028GUARARAPES     008000100140129029PATTEO         008000200070076030E-COMMERCE NOVO006000000000000                  000000000000000                  000000000000000                  000000000000000                  000000000000000                  000000000000000009300130000003900000000
9591005SEAWAY CS.FORTE008000700110069012IGUATEMI       019001200210134016TACARUNA       014001200180140018SEAWAY RECIFE  008000800160071024SEAWAY NORTE   008000200130033025NEWMAR         014001500140093026RIO MAR        008001100080088028GUARARAPES     008000500100070029PATTEO         008000500080050030E-COMMERCE NOVO006000500070045                  000000000000000                  000000000000000                  000000000000000                  000000000000000                  000000000000000012600010000008200000000
9653005SEAWAY CS.FORTE008001200130075012IGUATEMI       019000100310289016TACARUNA       014000800270153018SEAWAY RECIFE  008000400210075024SEAWAY NORTE   008000600160110025NEWMAR         014000900230108026RIO MAR        008001200100060028GUARARAPES     008000300210099029PATTEO         008000600100049030E-COMMERCE NOVO006000000000016                  000000000000000                  000000000000000                  000000000000000                  000000000000000                  000000000000000017200000000006100000000
0772005SEAWAY CS.FORTE008000000000122012IGUATEMI       012000000000749016TACARUNA       012000000000410018SEAWAY RECIFE  008000200010118024SEAWAY NORTE   008000000000589025NEWMAR         012000300010177026RIO MAR        007000200020091028GUARARAPES     008000000010191029PATTEO         008000100000114030E-COMMERCE NOVO000000000000000                  000000000000000                  000000000000000                  000000000000000                  000000000000000                  000000000000000000501910000000800000000
2993005SEAWAY CS.FORTE008000000000050012IGUATEMI       012000000000463016TACARUNA       012000000000267018SEAWAY RECIFE  008000000000047024SEAWAY NORTE   008000000000355025NEWMAR         012000100000174026RIO MAR        007000100000038028GUARARAPES     008000100000098029PATTEO         008000000000061030E-COMMERCE NOVO000000000000000                  000000000000000                  000000000000000                  000000000000000                  000000000000000                  000000000000000000102480000000300000000
3428005SEAWAY CS.FORTE008001500070018012IGUATEMI       018003200260124016TACARUNA       012002800160114018SEAWAY RECIFE  008001700120041024SEAWAY NORTE   010004400340160025NEWMAR         012001700190065026RIO MAR        008001600040041028GUARARAPES     008001700110060029PATTEO         008001600120049030E-COMMERCE NOVO000000000000000                  000000000000000                  000000000000000                  000000000000000                  000000000000000                  000000000000000014100080000020200000000
3439005SEAWAY CS.FORTE008000000000078012IGUATEMI       012000000000402016TACARUNA       012000000000238018SEAWAY RECIFE  008000100000078024SEAWAY NORTE   008000000000236025NEWMAR         012000000000082026RIO MAR        007000000000042028GUARARAPES     008000000010115029PATTEO         008000000000082030E-COMMERCE NOVO000000000000000                  000000000000000                  000000000000000                  000000000000000                  000000000000000                  000000000000000000101800000000100000000
3849005SEAWAY CS.FORTE008001800220199012IGUATEMI       018000701211097016TACARUNA       012003400390395018SEAWAY RECIFE  008002700290156024SEAWAY NORTE   010000300700503025NEWMAR         012003000410263026RIO MAR        008002700330142028GUARARAPES     008002300350231029PATTEO         008002500100109030E-COMMERCE NOVO000000000000000                  000000000000000                  000000000000000                  000000000000000                  000000000000000                  000000000000000040000170056019400000000
9160005SEAWAY CS.FORTE008001000140101012IGUATEMI       018000100580606016TACARUNA       012001400310198018SEAWAY RECIFE  008001200100053024SEAWAY NORTE   010000600300292025NEWMAR         012001400160093026RIO MAR        008001600090057028GUARARAPES     008001000170093029PATTEO         008000300080070030E-COMMERCE NOVO000000000000000                  000000000000000                  000000000000000                  000000000000000                  000000000000000                  000000000000000019300010000008600000000
1546005SEAWAY CS.FORTE008000000000004012IGUATEMI       008000200000000016TACARUNA       010000400000009018SEAWAY RECIFE  008000200000002024SEAWAY NORTE   008000200000000025NEWMAR         010000000000001026RIO MAR        008000000000005028GUARARAPES     008000100000004029PATTEO         008000100000001030E-COMMERCE NOVO000000000000000                  000000000000000                  000000000000000                  000000000000000                  000000000000000                  000000000000000000100600000001200000000
3959005SEAWAY CS.FORTE009000000000029012IGUATEMI       006000200000007016TACARUNA       011000100000043018SEAWAY RECIFE  009000000000023024SEAWAY NORTE   006000800000002025NEWMAR         011000000000031026RIO MAR        009000000000021028GUARARAPES     009000100000032029PATTEO         009000000000014030E-COMMERCE NOVO000000000000000                  000000000000000                  000000000000000                  000000000000000                  000000000000000                  000000000000000000201220000001200000000
4668005SEAWAY CS.FORTE008000200020015012IGUATEMI       005000700000001016TACARUNA       011000000010020018SEAWAY RECIFE  008000100000026024SEAWAY NORTE   005000400000002025NEWMAR         011000400000057026RIO MAR        008000100000038028GUARARAPES     008000400000011029PATTEO         008000300000006030E-COMMERCE NOVO007000400000015                  000000000000000                  000000000000000                  000000000000000                  000000000000000                  000000000000000000300620000003000000000
4669005SEAWAY CS.FORTE008000500020021012IGUATEMI       005000800000001016TACARUNA       011000900020033018SEAWAY RECIFE  008000500000019024SEAWAY NORTE   005000700000003025NEWMAR         011000700000057026RIO MAR        008000400000033028GUARARAPES     008000500010012029PATTEO         008000500000019030E-COMMERCE NOVO007000000000000                  000000000000000                  000000000000000                  000000000000000                  000000000000000                  000000000000000000500610001005500000000
4673005SEAWAY CS.FORTE008000000010082012IGUATEMI       005000700010048016TACARUNA       011000000040188018SEAWAY RECIFE  008000100020072024SEAWAY NORTE   005000700000003025NEWMAR         011000100010129026RIO MAR        008000100000089028GUARARAPES     008000200010045029PATTEO         008000100010052030E-COMMERCE NOVO007000000000000                  000000000000000                  000000000000000                  000000000000000                  000000000000000                  000000000000000001101200000002000000000
4702005SEAWAY CS.FORTE008000100000051012IGUATEMI       005000400000019016TACARUNA       011000000000143018SEAWAY RECIFE  008000000000043024SEAWAY NORTE   005000600000002025NEWMAR         011000000000085026RIO MAR        008000100000059028GUARARAPES     008000100000059029PATTEO         008000000000046030E-COMMERCE NOVO007000000000000                  000000000000000                  000000000000000                  000000000000000                  000000000000000                  000000000000000000101200000001300000000
4771005SEAWAY CS.FORTE009000000030091012IGUATEMI       010000500000020016TACARUNA       012000000000203018SEAWAY RECIFE  009000000010043024SEAWAY NORTE   010000800000005025NEWMAR         012000100020077026RIO MAR        009000000030066028GUARARAPES     009000100000075029PATTEO         009000000020050030E-COMMERCE NOVO007000000000000                  000000000000000                  000000000000000                  000000000000000                  000000000000000                  000000000000000001101230000001500000011
4956005SEAWAY CS.FORTE008000000000006012IGUATEMI       008000100000003016TACARUNA       008000300000007018SEAWAY RECIFE  008000200000005024SEAWAY NORTE   008000300000005025NEWMAR         009000100000007026RIO MAR        008000200000010028GUARARAPES     008000200000005029PATTEO         008000100000008030E-COMMERCE NOVO000000000000000                  000000000000000                  000000000000000                  000000000000000                  000000000000000                  000000000000000000100600000001500000000
4528005SEAWAY CS.FORTE009000100020057012IGUATEMI       006000400020026016TACARUNA       012000000060189018SEAWAY RECIFE  009000100030070024SEAWAY NORTE   006000700000015025NEWMAR         013000100010118026RIO MAR        009000000030101028GUARARAPES     009000100020065029PATTEO         009000000000061030E-COMMERCE NOVO014000600020009                  000000000000000                  000000000000000                  000000000000000                  000000000000000                  000000000000000002102160000002100000000
4549005SEAWAY CS.FORTE009000100000261012IGUATEMI       006000400010119016TACARUNA       012000000000740018SEAWAY RECIFE  009000000000278024SEAWAY NORTE   006000400000025025NEWMAR         013000000000685026RIO MAR        009000200000364028GUARARAPES     009000000000270029PATTEO         009000000000184030E-COMMERCE NOVO014000000000010                  000000000000000                  000000000000000                  000000000000000                  000000000000000                  000000000000000000102010000001100000000
4634005SEAWAY CS.FORTE009000000030228012IGUATEMI       006000300010122016TACARUNA       012000000030434018SEAWAY RECIFE  009000100020160024SEAWAY NORTE   006000300000018025NEWMAR         013000300020384026RIO MAR        009000100000238028GUARARAPES     009000000010225029PATTEO         009000100010202030E-COMMERCE NOVO014001300020021                  000000000000000                  000000000000000                  000000000000000                  000000000000000                  000000000000000001500050000002500000000
4664005SEAWAY CS.FORTE009000000000325005SEAWAY CS.FORTE009000500050217012IGUATEMI       006000100010202012IGUATEMI       006000600000150016TACARUNA       012000100020630016TACARUNA       012001800090457018SEAWAY RECIFE  009000000000266018SEAWAY RECIFE  009000500000195024SEAWAY NORTE   006000200000053024SEAWAY NORTE   006000400000037025NEWMAR         013000300050538025NEWMAR         013001000030414026RIO MAR        009000300000305026RIO MAR        009000900020225028GUARARAPES     009000000000458000902110001001600000001
4678005SEAWAY CS.FORTE009000800370270012IGUATEMI       006001100030060016TACARUNA       012000400460528018SEAWAY RECIFE  009000900330261024SEAWAY NORTE   006001000030019025NEWMAR         013001100440430026RIO MAR        009000800290372028GUARARAPES     009001100370340029PATTEO         009000000360254030E-COMMERCE NOVO014001100060030                  000000000000000                  000000000000000                  000000000000000                  000000000000000                  000000000000000027400090001008300000000
4690005SEAWAY CS.FORTE009000000050216005SEAWAY CS.FORTE009001400020167012IGUATEMI       006000000010171012IGUATEMI       006000800020115016TACARUNA       012000100000500016TACARUNA       012001500020396018SEAWAY RECIFE  009000000020174018SEAWAY RECIFE  009000900010148024SEAWAY NORTE   006000200000058024SEAWAY NORTE   006000700010043025NEWMAR         013000100050400025NEWMAR         013001600010330026RIO MAR        009000000010214026RIO MAR        009001100000168028GUARARAPES     009000000010303001600060000000500000000
4769005SEAWAY CS.FORTE009000000100173012IGUATEMI       006000900060056016TACARUNA       012001500280524018SEAWAY RECIFE  009001100310211024SEAWAY NORTE   006000900060053025NEWMAR         013001200250365026RIO MAR        009000100070285028GUARARAPES     009000600200191029PATTEO         009001200300213030E-COMMERCE NOVO014003800010015                  000000000000000                  000000000000000                  000000000000000                  000000000000000                  000000000000000016400050000011300000000
4838005SEAWAY CS.FORTE009000300010015012IGUATEMI       006000700000001016TACARUNA       012000400010013018SEAWAY RECIFE  009000600030019024SEAWAY NORTE   006000700000000025NEWMAR         013000800030034026RIO MAR        009000100010020028GUARARAPES     009000400010013029PATTEO         009000700020012030E-COMMERCE NOVO014001100030021                  000000000000000                  000000000000000                  000000000000000                  000000000000000                  000000000000000001500000000005800000000
4965005SEAWAY CS.FORTE009000000030110012IGUATEMI       006000700010022016TACARUNA       012000000020232018SEAWAY RECIFE  009000000060093024SEAWAY NORTE   006000100010010025NEWMAR         013000000050140026RIO MAR        009000200010096028GUARARAPES     009000000040131029PATTEO         009000000000100030E-COMMERCE NOVO014002600020008                  000000000000000                  000000000000000                  000000000000000                  000000000000000                  000000000000000002500010000003600000000
4990005SEAWAY CS.FORTE009000300120112012IGUATEMI       006000600040057016TACARUNA       012000100150243018SEAWAY RECIFE  009000200140140024SEAWAY NORTE   006000400010010025NEWMAR         013001100140234026RIO MAR        009000100180194028GUARARAPES     009000300120196029PATTEO         009000100110177030E-COMMERCE NOVO014002000100045                  000000000000000                  000000000000000                  000000000000000                  000000000000000                  000000000000000011102050001005200000000
7132005SEAWAY CS.FORTE009000000000015012IGUATEMI       006000500000001016TACARUNA       012000400000027018SEAWAY RECIFE  009000400000038024SEAWAY NORTE   006000200000000025NEWMAR         013000100000062026RIO MAR        009000000000039028GUARARAPES     009000200010018029PATTEO         009000000000011030E-COMMERCE NOVO014000000000000                  000000000000000                  000000000000000                  000000000000000                  000000000000000                  000000000000000000101000000001800000000
7275005SEAWAY CS.FORTE008000000000015012IGUATEMI       008000300000000016TACARUNA       010000000000025018SEAWAY RECIFE  008000000000025024SEAWAY NORTE   008000200000004025NEWMAR         011000000000035026RIO MAR        008000000000034028GUARARAPES     008000000000005029PATTEO         008000000000023030E-COMMERCE NOVO014000000000000                  000000000000000                  000000000000000                  000000000000000                  000000000000000                  000000000000000000000620000000500000000
7338005SEAWAY CS.FORTE009000000010242012IGUATEMI       006000300000090016TACARUNA       012000200020506018SEAWAY RECIFE  009000000010171024SEAWAY NORTE   006000300010009025NEWMAR         013000100040460026RIO MAR        009000100000246028GUARARAPES     009000000030236029PATTEO         009000100010200030E-COMMERCE NOVO014000000000000                  000000000000000                  000000000000000                  000000000000000                  000000000000000                  000000000000000001300010000001100000000
7455005SEAWAY CS.FORTE009000000000004012IGUATEMI       006000100000003016TACARUNA       012000000000006018SEAWAY RECIFE  009000000000001024SEAWAY NORTE   006000400000002025NEWMAR         013000000000011026RIO MAR        009000000000006028GUARARAPES     009000000000002029PATTEO         009000100000005030E-COMMERCE NOVO014000000000000                  000000000000000                  000000000000000                  000000000000000                  000000000000000                  000000000000000000000000000000600000000
7495005SEAWAY CS.FORTE009000000040266012IGUATEMI       006000400010113016TACARUNA       012000000020675018SEAWAY RECIFE  009000100110180024SEAWAY NORTE   006000300000025025NEWMAR         013000100130555026RIO MAR        009000000070322028GUARARAPES     009000000030190029PATTEO         009000000000219030E-COMMERCE NOVO014002200000000                  000000000000000                  000000000000000                  000000000000000                  000000000000000                  000000000000000004102130000003100000002
7496005SEAWAY CS.FORTE009000000010076012IGUATEMI       006000100000046016TACARUNA       012000000000173018SEAWAY RECIFE  009000000000121024SEAWAY NORTE   006000700000013025NEWMAR         013000100000207026RIO MAR        009000000000189028GUARARAPES     009000400000083029PATTEO         009000000000153030E-COMMERCE NOVO014000000000000                  000000000000000                  000000000000000                  000000000000000                  000000000000000                  000000000000000000100030000001300000000
7501005SEAWAY CS.FORTE009000100000112012IGUATEMI       006000100000038016TACARUNA       012000100000398018SEAWAY RECIFE  009000000050063024SEAWAY NORTE   006000800010011025NEWMAR         013000000020138026RIO MAR        009000000000142028GUARARAPES     009000000000110029PATTEO         009000000000114030E-COMMERCE NOVO014001800010018                  000000000000000                  000000000000000                  000000000000000                  000000000000000                  000000000000000000900020000002900000000
1328005SEAWAY CS.FORTE009000000000000012IGUATEMI       006000000000000016TACARUNA       012000000000000018SEAWAY RECIFE  009000000000000024SEAWAY NORTE   006000100000000025NEWMAR         013000000000000026RIO MAR        009000000000000028GUARARAPES     009000000000002029PATTEO         009000000000000030E-COMMERCE NOVO014000000000000                  000000000000000                  000000000000000                  000000000000000                  000000000000000                  000000000000000008200600000000100000000
4612005SEAWAY CS.FORTE008000100010041012IGUATEMI       008000400000008016TACARUNA       010000200030092018SEAWAY RECIFE  008000100020049024SEAWAY NORTE   008000400020019025NEWMAR         011000100010103026RIO MAR        008000100030064028GUARARAPES     008000200010034029PATTEO         008000200020041030E-COMMERCE NOVO014000000000000                  000000000000000                  000000000000000                  000000000000000                  000000000000000                  000000000000000001500930000001800000000
4617005SEAWAY CS.FORTE008000800030059012IGUATEMI       006000800000054016TACARUNA       010000700120136018SEAWAY RECIFE  008001100050105024SEAWAY NORTE   006000200000007025NEWMAR         010000000000120026RIO MAR        008000900040141028GUARARAPES     008000800010047029PATTEO         008000700010064030E-COMMERCE NOVO014001400030021                  000000000000000                  000000000000000                  000000000000000                  000000000000000                  000000000000000002900010015007400000000
4618005SEAWAY CS.FORTE008000700000006012IGUATEMI       006000500000003016TACARUNA       010001200000013018SEAWAY RECIFE  008000500000007024SEAWAY NORTE   006000400000001025NEWMAR         010000700000011026RIO MAR        008000500000009028GUARARAPES     008000700000008029PATTEO         008000600010008030E-COMMERCE NOVO014000000000000                  000000000000000                  000000000000000                  000000000000000                  000000000000000                  000000000000000000100000003005800000000
4619005SEAWAY CS.FORTE008000600010005012IGUATEMI       006000800000000016TACARUNA       010001200000008018SEAWAY RECIFE  008001000000017024SEAWAY NORTE   006000400000000025NEWMAR         010000600000009026RIO MAR        008000300010011028GUARARAPES     008000600010006029PATTEO         008000500010009030E-COMMERCE NOVO014000000000000                  000000000000000                  000000000000000                  000000000000000                  000000000000000                  000000000000000000400000000006000000000
4620005SEAWAY CS.FORTE008000500160228012IGUATEMI       006000700020044016TACARUNA       010000500360480018SEAWAY RECIFE  008001400250216024SEAWAY NORTE   006000200000024025NEWMAR         010001500290490026RIO MAR        008001300190276028GUARARAPES     008001300220195029PATTEO         008000900160162030E-COMMERCE NOVO014000700060018                  000000000000000                  000000000000000                  000000000000000                  000000000000000                  000000000000000090100040018009003500005
4621005SEAWAY CS.FORTE008000700000004012IGUATEMI       006000600000001016TACARUNA       010001100000008018SEAWAY RECIFE  008001000000005024SEAWAY NORTE   006000400000000025NEWMAR         010001100010013026RIO MAR        008000700010006028GUARARAPES     008000700010003029PATTEO         008000400020009030E-COMMERCE NOVO014000000000000                  000000000000000                  000000000000000                  000000000000000                  000000000000000                  000000000000000000500000019006700000000
4631005SEAWAY CS.FORTE008000900130128012IGUATEMI       006000700000023016TACARUNA       010001000170327018SEAWAY RECIFE  008000600140139024SEAWAY NORTE   006000400010013025NEWMAR         010000800220316026RIO MAR        008000800150214028GUARARAPES     008001200070119029PATTEO         008000700060086030E-COMMERCE NOVO014000500050019                  000000000000000                  000000000000000                  000000000000000                  000000000000000                  000000000000000010000020084007600000000
4633005SEAWAY CS.FORTE008001700050099012IGUATEMI       006000700000015016TACARUNA       010001000070184018SEAWAY RECIFE  008001800070109024SEAWAY NORTE   006000300000011025NEWMAR         010000900030179026RIO MAR        008000500050086028GUARARAPES     008000800060088029PATTEO         008000700030050030E-COMMERCE NOVO014000000000000                  000000000000000                  000000000000000                  000000000000000                  000000000000000                  000000000000000003600000003008400000000
4647005SEAWAY CS.FORTE008000100000025012IGUATEMI       006000700000008016TACARUNA       010000400000025018SEAWAY RECIFE  008000400010019024SEAWAY NORTE   006000200000007025NEWMAR         010000000000046026RIO MAR        008000200000037028GUARARAPES     008000300000020029PATTEO         008000100000026030E-COMMERCE NOVO014000000000000                  000000000000000                  000000000000000                  000000000000000                  000000000000000                  000000000000000000101300000002400000000
4656005SEAWAY CS.FORTE008000300030095012IGUATEMI       008000700000013016TACARUNA       010000700060201018SEAWAY RECIFE  008000700040101024SEAWAY NORTE   008000100000013025NEWMAR         011000200190315026RIO MAR        008000300120204028GUARARAPES     008000600040090029PATTEO         008000700020091030E-COMMERCE NOVO014001100030016                  000000000000000                  000000000000000                  000000000000000                  000000000000000                  000000000000000005300010000005400000000
7117005SEAWAY CS.FORTE008000500020036012IGUATEMI       006000200000034016TACARUNA       010000600020103018SEAWAY RECIFE  008000600010065024SEAWAY NORTE   006000500000018025NEWMAR         010000400050192026RIO MAR        008000600020082028GUARARAPES     008000000000056029PATTEO         008000600020047030E-COMMERCE NOVO014001200010009                  000000000000000                  000000000000000                  000000000000000                  000000000000000                  000000000000000001500040005005200000000
7119005SEAWAY CS.FORTE008000800030016012IGUATEMI       006000400000002016TACARUNA       010001100070021018SEAWAY RECIFE  008001000000011024SEAWAY NORTE   006000300000004025NEWMAR         010001000010031026RIO MAR        008000900020018028GUARARAPES     008000500030022029PATTEO         008001000010008030E-COMMERCE NOVO014000700030003                  000000000000000                  000000000000000                  000000000000000                  000000000000000                  000000000000000002000000014007700000000
7121005SEAWAY CS.FORTE008000400010026012IGUATEMI       006000400000005016TACARUNA       010000300010031018SEAWAY RECIFE  008000200000015024SEAWAY NORTE   006000400000002025NEWMAR         010000200010035026RIO MAR        008000200000029028GUARARAPES     008000600010029029PATTEO         008000600000022030E-COMMERCE NOVO014000000000000                  000000000000000                  000000000000000                  000000000000000                  000000000000000                  000000000000000000400000000003300000000
7123005SEAWAY CS.FORTE008000500030033012IGUATEMI       006000700000009016TACARUNA       010000800020056018SEAWAY RECIFE  008000800000036024SEAWAY NORTE   006000400000002025NEWMAR         010001000010049026RIO MAR        008000500030063028GUARARAPES     008000900000034029PATTEO         008000500000037030E-COMMERCE NOVO014000300000009                  000000000000000                  000000000000000                  000000000000000                  000000000000000                  000000000000000000900030012006400000000
7223005SEAWAY CS.FORTE008000000000019012IGUATEMI       006000000000010016TACARUNA       010000000000028018SEAWAY RECIFE  008000000000014024SEAWAY NORTE   006000300000005025NEWMAR         010000000000027026RIO MAR        008000000000022028GUARARAPES     008000000000030029PATTEO         008000000000014030E-COMMERCE NOVO014000000000000                  000000000000000                  000000000000000                  000000000000000                  000000000000000                  000000000000000000000990000000300000000
7248005SEAWAY CS.FORTE008000500040018012IGUATEMI       006000400010018016TACARUNA       010000100050062018SEAWAY RECIFE  008000600010025024SEAWAY NORTE   006000200000008025NEWMAR         010000100040080026RIO MAR        008000500000020028GUARARAPES     008000400020024029PATTEO         008000500000023030E-COMMERCE NOVO014000000000000                  000000000000000                  000000000000000                  000000000000000                  000000000000000                  000000000000000001701220000003300000000
7250005SEAWAY CS.FORTE008000700040028012IGUATEMI       006000500010016016TACARUNA       010000500040075018SEAWAY RECIFE  008000900010022024SEAWAY NORTE   006000400000001025NEWMAR         010000800020032026RIO MAR        008000600040049028GUARARAPES     008000900020024029PATTEO         008000600030048030E-COMMERCE NOVO014001200000001                  000000000000000                  000000000000000                  000000000000000                  000000000000000                  000000000000000002100020001007100000000
7316005SEAWAY CS.FORTE008000700000002012IGUATEMI       006000500000007016TACARUNA       010001100000031018SEAWAY RECIFE  008000900000017024SEAWAY NORTE   006000400000002025NEWMAR         010001400000038026RIO MAR        008000700000021028GUARARAPES     008000800000009029PATTEO         008001000000015030E-COMMERCE NOVO014000000000000                  000000000000000                  000000000000000                  000000000000000                  000000000000000                  000000000000000000100000024007500000000
7317005SEAWAY CS.FORTE008000400060067012IGUATEMI       008000200000008016TACARUNA       010000700060178018SEAWAY RECIFE  008000900040142024SEAWAY NORTE   008000100040019025NEWMAR         011001200100380026RIO MAR        008000300080176028GUARARAPES     008000400070108029PATTEO         008000800020099030E-COMMERCE NOVO014000000000000                  000000000000000                  000000000000000                  000000000000000                  000000000000000                  000000000000000004700050000005000000000
7318005SEAWAY CS.FORTE008000100000016012IGUATEMI       008000200000004016TACARUNA       010000000000037018SEAWAY RECIFE  008000000010018024SEAWAY NORTE   008000600000000025NEWMAR         011000000000034026RIO MAR        008000000000043028GUARARAPES     008000200010032029PATTEO         008000100000019030E-COMMERCE NOVO014000000000000                  000000000000000                  000000000000000                  000000000000000                  000000000000000                  000000000000000000200610000001200000000
7325005SEAWAY CS.FORTE008000000000002012IGUATEMI       008000300000000016TACARUNA       010000000000001018SEAWAY RECIFE  008000000000003024SEAWAY NORTE   008000000000002025NEWMAR         011000000000000026RIO MAR        008000000000000028GUARARAPES     008000100000000029PATTEO         008000000000001030E-COMMERCE NOVO014000000000000                  000000000000000                  000000000000000                  000000000000000                  000000000000000                  000000000000000000000000000000400000000
7342005SEAWAY CS.FORTE008000100000010012IGUATEMI       008000400000008016TACARUNA       010000000000034018SEAWAY RECIFE  008000000000016024SEAWAY NORTE   008000100000003025NEWMAR         011000000000016026RIO MAR        008000000000020028GUARARAPES     008000000000009029PATTEO         008000000000010030E-COMMERCE NOVO014000000000000                  000000000000000                  000000000000000                  000000000000000                  000000000000000                  000000000000000000000000000000600000000
7396005SEAWAY CS.FORTE008000600020068012IGUATEMI       006000400000013016TACARUNA       010000400030191018SEAWAY RECIFE  008001300000141024SEAWAY NORTE   006000300000012025NEWMAR         010000700020297026RIO MAR        008000700030166028GUARARAPES     008001100000114029PATTEO         008000700000065030E-COMMERCE NOVO014001900020002                  000000000000000                  000000000000000                  000000000000000                  000000000000000                  000000000000000001200010001008100000000
7411005SEAWAY CS.FORTE008000700010013012IGUATEMI       006000600000004016TACARUNA       010000600020016018SEAWAY RECIFE  008000600010013024SEAWAY NORTE   006000100000001025NEWMAR         010001600010024026RIO MAR        008000600000014028GUARARAPES     008000400010011029PATTEO         008000700010010030E-COMMERCE NOVO014000000000000                  000000000000000                  000000000000000                  000000000000000                  000000000000000                  000000000000000000701200000005900000000
7428005SEAWAY CS.FORTE008000700000009012IGUATEMI       006000400000005016TACARUNA       010001000000013018SEAWAY RECIFE  008000700000006024SEAWAY NORTE   006000400000001025NEWMAR         010000700010022026RIO MAR        008000600000015028GUARARAPES     008000700000012029PATTEO         008000800000006030E-COMMERCE NOVO014000000000000                  000000000000000                  000000000000000                  000000000000000                  000000000000000                  000000000000000000100000002006000000000
7429005SEAWAY CS.FORTE008000800000018012IGUATEMI       006000400000006016TACARUNA       010000900000025018SEAWAY RECIFE  008000800000013024SEAWAY NORTE   006000400000002025NEWMAR         010000900000027026RIO MAR        008000800000020028GUARARAPES     008000700010014029PATTEO         008000700000014030E-COMMERCE NOVO014000000000000                  000000000000000                  000000000000000                  000000000000000                  000000000000000                  000000000000000000100020007006400000000
7433005SEAWAY CS.FORTE008000600000013012IGUATEMI       006000400000012016TACARUNA       010000900000021018SEAWAY RECIFE  008000600000014024SEAWAY NORTE   006000400000004025NEWMAR         010000800000037026RIO MAR        008000500000023028GUARARAPES     008000700000014029PATTEO         008000900000011030E-COMMERCE NOVO014000200010004                  000000000000000                  000000000000000                  000000000000000                  000000000000000                  000000000000000000100000001006000000000
7441005SEAWAY CS.FORTE008001000030050012IGUATEMI       008000700000000016TACARUNA       010000500050178018SEAWAY RECIFE  008000700040143024SEAWAY NORTE   008000300000011025NEWMAR         011000700050252026RIO MAR        008000400070141028GUARARAPES     008000600010063029PATTEO         008000800000074030E-COMMERCE NOVO014000700010003                  000000000000000                  000000000000000                  000000000000000                  000000000000000                  000000000000000002600900000006400000000
7472005SEAWAY CS.FORTE008000100020016012IGUATEMI       008000200000004016TACARUNA       010000300000030018SEAWAY RECIFE  008000000000010024SEAWAY NORTE   008000600000003025NEWMAR         011000000000029026RIO MAR        008000000000015028GUARARAPES     008000000000008029PATTEO         008000000000013030E-COMMERCE NOVO014000000000000                  000000000000000                  000000000000000                  000000000000000                  000000000000000                  000000000000000000200600000001200000000
4663005SEAWAY CS.FORTE008000100000008012IGUATEMI       008000100000003016TACARUNA       010000000000016018SEAWAY RECIFE  008000100000011024SEAWAY NORTE   008000100000001025NEWMAR         010000100000012026RIO MAR        008000300000007028GUARARAPES     008000000000006029PATTEO         008000100000007030E-COMMERCE NOVO000000000000000                  000000000000000                  000000000000000                  000000000000000                  000000000000000                  000000000000000000100010000000900000000
4707005SEAWAY CS.FORTE008000600020036012IGUATEMI       008000300000000016TACARUNA       010001000010015018SEAWAY RECIFE  008000500010018024SEAWAY NORTE   008000700000001025NEWMAR         010000900010038026RIO MAR        008000500010033028GUARARAPES     008000600000011029PATTEO         008000800000010030E-COMMERCE NOVO000000000000000                  000000000000000                  000000000000000                  000000000000000                  000000000000000                  000000000000000000600000008005900000000
4828005SEAWAY CS.FORTE008000600000010012IGUATEMI       008000500000003016TACARUNA       010000100010015018SEAWAY RECIFE  008000500000013024SEAWAY NORTE   008000500010004025NEWMAR         010000200010017026RIO MAR        008000200000010028GUARARAPES     008000300000007029PATTEO         008000300000009030E-COMMERCE NOVO000000000000000                  000000000000000                  000000000000000                  000000000000000                  000000000000000                  000000000000000000300610007003200000000
6076005SEAWAY CS.FORTE008000000000000012IGUATEMI       008000100000000016TACARUNA       010000100000001018SEAWAY RECIFE  008000100000000024SEAWAY NORTE   008000000000000025NEWMAR         010000200000001026RIO MAR        008000200000000028GUARARAPES     008000100000000029PATTEO         008000000000000030E-COMMERCE NOVO000000000000000                  000000000000000                  000000000000000                  000000000000000                  000000000000000                  000000000000000000000000000000800000000
6106005SEAWAY CS.FORTE008000000000004012IGUATEMI       008000000000000016TACARUNA       010000200000006018SEAWAY RECIFE  008000000000003024SEAWAY NORTE   008000000000000025NEWMAR         010000000000003026RIO MAR        008000000000009028GUARARAPES     008000200000005029PATTEO         008000100000006030E-COMMERCE NOVO000000000000000                  000000000000000                  000000000000000                  000000000000000                  000000000000000                  000000000000000000000000000000500000000
6113005SEAWAY CS.FORTE008000000000022012IGUATEMI       008000000000000016TACARUNA       010000000000005018SEAWAY RECIFE  008000100000007024SEAWAY NORTE   008000100000003025NEWMAR         010000000000027026RIO MAR        008000000000028028GUARARAPES     008000000000000029PATTEO         008000300000008030E-COMMERCE NOVO000000000000000                  000000000000000                  000000000000000                  000000000000000                  000000000000000                  000000000000000000100000000000500000000
6136005SEAWAY CS.FORTE008000000000002012IGUATEMI       008000100000002016TACARUNA       010000200000002018SEAWAY RECIFE  008000000000003024SEAWAY NORTE   008000500000000025NEWMAR         010000000000003026RIO MAR        008000000000003028GUARARAPES     008000000000001029PATTEO         008000000000001030E-COMMERCE NOVO000000000000000                  000000000000000                  000000000000000                  000000000000000                  000000000000000                  000000000000000000100400000000800000000
6027005SEAWAY CS.FORTE008000100000017012IGUATEMI       008000000000003016TACARUNA       010000300000033018SEAWAY RECIFE  008000000000021024SEAWAY NORTE   008000000000003025NEWMAR         010000200000038026RIO MAR        008000000000032028GUARARAPES     008000000000020029PATTEO         008000200000011030E-COMMERCE NOVO000000000000000                  000000000000000                  000000000000000                  000000000000000                  000000000000000                  000000000000000000100600000000800000000
6028005SEAWAY CS.FORTE008000000000001012IGUATEMI       008000000000003016TACARUNA       010000000000004018SEAWAY RECIFE  008000000000001024SEAWAY NORTE   008000000000001025NEWMAR         010000000000002026RIO MAR        008000000000001028GUARARAPES     008000000000001029PATTEO         008000000000001030E-COMMERCE NOVO000000000000000                  000000000000000                  000000000000000                  000000000000000                  000000000000000                  000000000000000007600000000000000000000
6034005SEAWAY CS.FORTE008000000000003012IGUATEMI       008000200000004016TACARUNA       010000000000010018SEAWAY RECIFE  008000000000005024SEAWAY NORTE   008000100000006025NEWMAR         010000000000015026RIO MAR        008000000000011028GUARARAPES     008000000000006029PATTEO         008000000000004030E-COMMERCE NOVO000000000000000                  000000000000000                  000000000000000                  000000000000000                  000000000000000                  000000000000000000100000000000300000000
6036005SEAWAY CS.FORTE008000000000018012IGUATEMI       008000000000002016TACARUNA       010000000000030018SEAWAY RECIFE  008000000000024024SEAWAY NORTE   008000000000000025NEWMAR         010000000000047026RIO MAR        008000000000060028GUARARAPES     008000100000020029PATTEO         008000100000016030E-COMMERCE NOVO000000000000000                  000000000000000                  000000000000000                  000000000000000                  000000000000000                  000000000000000000100010000000200000000
6061005SEAWAY CS.FORTE008000000000003012IGUATEMI       008000100000000016TACARUNA       010000000000008018SEAWAY RECIFE  008000000000001024SEAWAY NORTE   008000100000002025NEWMAR         010000100000006026RIO MAR        008000000000008028GUARARAPES     008000000000003029PATTEO         008000100000002030E-COMMERCE NOVO000000000000000                  000000000000000                  000000000000000                  000000000000000                  000000000000000                  000000000000000000100000000000400000002
6112005SEAWAY CS.FORTE008000000000005012IGUATEMI       008000100000000016TACARUNA       010001000000001018SEAWAY RECIFE  008000100000002024SEAWAY NORTE   008000500000002025NEWMAR         010000200000005026RIO MAR        008000000000005028GUARARAPES     008000000000000029PATTEO         008000100000000030E-COMMERCE NOVO000000000000000                  000000000000000                  000000000000000                  000000000000000                  000000000000000                  000000000000000000000000000002000000000
6115005SEAWAY CS.FORTE008000000000003012IGUATEMI       008000000000002016TACARUNA       010000100000002018SEAWAY RECIFE  008000000000000024SEAWAY NORTE   008000000000001025NEWMAR         010000000000001026RIO MAR        008000000000005028GUARARAPES     008000000000001029PATTEO         008000000000001030E-COMMERCE NOVO000000000000000                  000000000000000                  000000000000000                  000000000000000                  000000000000000                  000000000000000000000000000000100000000
4608005SEAWAY CS.FORTE008000000000008012IGUATEMI       008000200000006016TACARUNA       010000000000009018SEAWAY RECIFE  008000000000006024SEAWAY NORTE   008000400000001025NEWMAR         010000000000010026RIO MAR        008000000000010028GUARARAPES     008000000000007029PATTEO         008000000000004030E-COMMERCE NOVO006000000000000                  000000000000000                  000000000000000                  000000000000000                  000000000000000                  000000000000000000100600000000600000000
4687005SEAWAY CS.FORTE008000000000002012IGUATEMI       008000000000000016TACARUNA       010000000000003018SEAWAY RECIFE  008000000000001024SEAWAY NORTE   008000000000000025NEWMAR         010000000000007026RIO MAR        008000000000006028GUARARAPES     008000000000000029PATTEO         008000000000000030E-COMMERCE NOVO006000000000000                  000000000000000                  000000000000000                  000000000000000                  000000000000000                  000000000000000008200600000000000000000
4787005SEAWAY CS.FORTE008000500000007012IGUATEMI       008000600000002016TACARUNA       010000300000009018SEAWAY RECIFE  008000000000006024SEAWAY NORTE   008000400000001025NEWMAR         010000100000014026RIO MAR        008000000000011028GUARARAPES     008000200000008029PATTEO         008000100000006030E-COMMERCE NOVO006000600000003                  000000000000000                  000000000000000                  000000000000000                  000000000000000                  000000000000000000100600000002800000000
4882005SEAWAY CS.FORTE008000300000004012IGUATEMI       008000700000005016TACARUNA       010000200010012018SEAWAY RECIFE  008000400000013024SEAWAY NORTE   008000600000001025NEWMAR         010000400000033026RIO MAR        008000100020024028GUARARAPES     008000400000010029PATTEO         008000100000007030E-COMMERCE NOVO006000700020007                  000000000000000                  000000000000000                  000000000000000                  000000000000000                  000000000000000000500600000003900000000
4938005SEAWAY CS.FORTE008000300000003012IGUATEMI       008000300000002016TACARUNA       010000600000008018SEAWAY RECIFE  008000400010007024SEAWAY NORTE   008000200000001025NEWMAR         010000200020013026RIO MAR        008000000000010028GUARARAPES     008000500000004029PATTEO         008000400000002030E-COMMERCE NOVO006001600010004                  000000000000000                  000000000000000                  000000000000000                  000000000000000                  000000000000000000400000000004500000000
2193005SEAWAY CS.FORTE008000100020053012IGUATEMI       008000700010034016TACARUNA       010000400010081018SEAWAY RECIFE  008000200020064024SEAWAY NORTE   008000500020023025NEWMAR         010000000010084026RIO MAR        008000100000095028GUARARAPES     008000000000056029PATTEO         008000200040056030E-COMMERCE NOVO006000000000015                  000000000000000                  000000000000000                  000000000000000                  000000000000000                  000000000000000001300130000002200000000
2368005SEAWAY CS.FORTE008000000000032012IGUATEMI       008000300000014016TACARUNA       010000000000058018SEAWAY RECIFE  008000000000043024SEAWAY NORTE   008000200000007025NEWMAR         010000000000085026RIO MAR        008000000000066028GUARARAPES     008000100000028029PATTEO         008000100000030030E-COMMERCE NOVO006000000000010                  000000000000000                  000000000000000                  000000000000000                  000000000000000                  000000000000000000100160000000700000000
4682005SEAWAY CS.FORTE008000000000006012IGUATEMI       008000200000004016TACARUNA       010000000000006018SEAWAY RECIFE  008000000000006024SEAWAY NORTE   008000000000000025NEWMAR         010000000000006026RIO MAR        008000000000006028GUARARAPES     008000000000004029PATTEO         008000000000005030E-COMMERCE NOVO006000000000000                  000000000000000                  000000000000000                  000000000000000                  000000000000000                  000000000000000000000600000000200000000
4688005SEAWAY CS.FORTE008000000000007012IGUATEMI       008000900000002016TACARUNA       010000000000006018SEAWAY RECIFE  008000000000013024SEAWAY NORTE   008000300000004025NEWMAR         010000000000011026RIO MAR        008000000000007028GUARARAPES     008000000000004029PATTEO         008000000000012030E-COMMERCE NOVO006000000000000                  000000000000000                  000000000000000                  000000000000000                  000000000000000                  000000000000000000000170000001200000000
4842005SEAWAY CS.FORTE008000000000003012IGUATEMI       008000600000006016TACARUNA       010000000000013018SEAWAY RECIFE  008000100000020024SEAWAY NORTE   008000600020003025NEWMAR         010000000000021026RIO MAR        008000000000018028GUARARAPES     008000100000011029PATTEO         008000000000001030E-COMMERCE NOVO006000100000004                  000000000000000                  000000000000000                  000000000000000                  000000000000000                  000000000000000000200010000001500000000
4089005SEAWAY CS.FORTE005000000000004012IGUATEMI       005000000000000016TACARUNA       007000000000003018SEAWAY RECIFE  005000000000004024SEAWAY NORTE   005000100000001025NEWMAR         007000000000002026RIO MAR        005000000000002028GUARARAPES     005000100000002029PATTEO         005000000000004030E-COMMERCE NOVO006000000000000                  000000000000000                  000000000000000                  000000000000000                  000000000000000                  000000000000000000100000000000200000003
4090005SEAWAY CS.FORTE005000000000000012IGUATEMI       005000000000000016TACARUNA       007000000000000018SEAWAY RECIFE  005000000000000024SEAWAY NORTE   005000000000000025NEWMAR         007000000000000026RIO MAR        005000000000000028GUARARAPES     005000000000000029PATTEO         005000000000000030E-COMMERCE NOVO006000000000000                  000000000000000                  000000000000000                  000000000000000                  000000000000000                  000000000000000005500000000000000000009
4091005SEAWAY CS.FORTE005000000000000012IGUATEMI       005000000000001016TACARUNA       007000000000000018SEAWAY RECIFE  005000000000000024SEAWAY NORTE   005000000000000025NEWMAR         007000000000000026RIO MAR        005000000000001028GUARARAPES     005000100000002029PATTEO         005000000000000030E-COMMERCE NOVO006000000000000                  000000000000000                  000000000000000                  000000000000000                  000000000000000                  000000000000000000000000000000100000000
4450005SEAWAY CS.FORTE005000000000003012IGUATEMI       005000000000000016TACARUNA       007000000000000018SEAWAY RECIFE  005000000000000024SEAWAY NORTE   005000000000000025NEWMAR         007000000000000026RIO MAR        005000000000000028GUARARAPES     005000000000002029PATTEO         005000000000001030E-COMMERCE NOVO006000000000000                  000000000000000                  000000000000000                  000000000000000                  000000000000000                  000000000000000005500000000000000000000
4455005SEAWAY CS.FORTE005000000000001012IGUATEMI       005000000000001016TACARUNA       007000000000000018SEAWAY RECIFE  005000000000000024SEAWAY NORTE   005000100000002025NEWMAR         007000000000001026RIO MAR        005000000000000028GUARARAPES     005000300000001029PATTEO         005000000000003030E-COMMERCE NOVO006000000000000                  000000000000000                  000000000000000                  000000000000000                  000000000000000                  000000000000000000000000000000400000000
4486005SEAWAY CS.FORTE005000000000008012IGUATEMI       005000000000008016TACARUNA       007000000000014018SEAWAY RECIFE  005000000000006024SEAWAY NORTE   005000300000004025NEWMAR         007000000000010026RIO MAR        005000000000005028GUARARAPES     005000000000010029PATTEO         005000000000012030E-COMMERCE NOVO006000000000000                  000000000000000                  000000000000000                  000000000000000                  000000000000000                  000000000000000000000000000000300000000
4488005SEAWAY CS.FORTE005000100000004012IGUATEMI       005000300000004016TACARUNA       007000000000006018SEAWAY RECIFE  005000200000004024SEAWAY NORTE   005000400000003025NEWMAR         007000100000011026RIO MAR        005000100000002028GUARARAPES     005000000000005029PATTEO         005000100000005030E-COMMERCE NOVO006000000000000                  000000000000000                  000000000000000                  000000000000000                  000000000000000                  000000000000000000100000000001300000000
4577005SEAWAY CS.FORTE005000000000009012IGUATEMI       005000000000020016TACARUNA       007000000000022018SEAWAY RECIFE  005000000000018024SEAWAY NORTE   005000200000013025NEWMAR         007000000000010026RIO MAR        005000000000013028GUARARAPES     005000200000005029PATTEO         005000000000012030E-COMMERCE NOVO006000000000000                  000000000000000                  000000000000000                  000000000000000                  000000000000000                  000000000000000000100000000000400000000
4578005SEAWAY CS.FORTE005000100000010012IGUATEMI       005000200000003016TACARUNA       007000100000009018SEAWAY RECIFE  005000100000011024SEAWAY NORTE   005000000000003025NEWMAR         007000200000015026RIO MAR        005000000000008028GUARARAPES     005000200000004029PATTEO         005000100000008030E-COMMERCE NOVO006000000000000                  000000000000000                  000000000000000                  000000000000000                  000000000000000                  000000000000000000000010000001000000000
4641005SEAWAY CS.FORTE005000200000004012IGUATEMI       005000100000006016TACARUNA       007000100000006018SEAWAY RECIFE  005000200000003024SEAWAY NORTE   005000400000003025NEWMAR         007000400000005026RIO MAR        005000100000006028GUARARAPES     005000200000004029PATTEO         005000100010006030E-COMMERCE NOVO006000000000000                  000000000000000                  000000000000000                  000000000000000                  000000000000000                  000000000000000000100000005001800000000
4781005SEAWAY CS.FORTE005000100000012012IGUATEMI       005000100000009016TACARUNA       007000000000013018SEAWAY RECIFE  005000200000014024SEAWAY NORTE   005000500000009025NEWMAR         007000000000017026RIO MAR        005000000000015028GUARARAPES     005000300000006029PATTEO         005000000000010030E-COMMERCE NOVO006000000000000                  000000000000000                  000000000000000                  000000000000000                  000000000000000                  000000000000000000100000000001200000000
4782005SEAWAY CS.FORTE005000100000008012IGUATEMI       005000200000007016TACARUNA       007000100000016018SEAWAY RECIFE  005000100010006024SEAWAY NORTE   005000800000007025NEWMAR         007000100000020026RIO MAR        005000100000009028GUARARAPES     005000500000003029PATTEO         005000000010011030E-COMMERCE NOVO006000000000000                  000000000000000                  000000000000000                  000000000000000                  000000000000000                  000000000000000000200000000002000000000
4823005SEAWAY CS.FORTE005000000000016012IGUATEMI       005000000000013016TACARUNA       007000000000015018SEAWAY RECIFE  005000000000018024SEAWAY NORTE   005000200000007025NEWMAR         007000000000028026RIO MAR        005000000000015028GUARARAPES     005000100000011029PATTEO         005000000000008030E-COMMERCE NOVO006000000000000                  000000000000000                  000000000000000                  000000000000000                  000000000000000                  000000000000000000100010000000300000017
4921005SEAWAY CS.FORTE005000400000002012IGUATEMI       005000400000000016TACARUNA       007000800000003018SEAWAY RECIFE  005000500000003024SEAWAY NORTE   005000300000000025NEWMAR         007000700000007026RIO MAR        005000400000008028GUARARAPES     005000400000002029PATTEO         005000400000004030E-COMMERCE NOVO006000000000000                  000000000000000                  000000000000000                  000000000000000                  000000000000000                  000000000000000000100000023004300000000
4968005SEAWAY CS.FORTE005000100000010012IGUATEMI       005000200000007016TACARUNA       007000000000030018SEAWAY RECIFE  005000200000007024SEAWAY NORTE   005000500000000025NEWMAR         007000000000012026RIO MAR        005000100000006028GUARARAPES     005000400000004029PATTEO         005000000000005030E-COMMERCE NOVO006000000000000                  000000000000000                  000000000000000                  000000000000000                  000000000000000                  000000000000000000100000000001500000001
4969005SEAWAY CS.FORTE005000000000008012IGUATEMI       005000100000007016TACARUNA       007000000000024018SEAWAY RECIFE  005000000000015024SEAWAY NORTE   005000200000004025NEWMAR         007000000000017026RIO MAR        005000000000013028GUARARAPES     005000200000011029PATTEO         005000000000005030E-COMMERCE NOVO006000000000000                  000000000000000                  000000000000000                  000000000000000                  000000000000000                  000000000000000000100000000000500000000
4971005SEAWAY CS.FORTE005000000000014012IGUATEMI       005000300000007016TACARUNA       007000100000025018SEAWAY RECIFE  005000100000009024SEAWAY NORTE   005000200000003025NEWMAR         007000100000010026RIO MAR        005000200000012028GUARARAPES     005000300010007029PATTEO         005000200000006030E-COMMERCE NOVO006000000000000                  000000000000000                  000000000000000                  000000000000000                  000000000000000                  000000000000000000100000000001500000000
4650005SEAWAY CS.FORTE005000300010035012IGUATEMI       004000500000002016TACARUNA       007000600010024018SEAWAY RECIFE  005000100010047024SEAWAY NORTE   004000300020007025NEWMAR         007000300000091026RIO MAR        005000200000056028GUARARAPES     005000300000021029PATTEO         005000200010035030E-COMMERCE NOVO000000000000000                  000000000000000                  000000000000000                  000000000000000                  000000000000000                  000000000000000000600000000002800000000
4680005SEAWAY CS.FORTE005000100000040012IGUATEMI       004000400000002016TACARUNA       007000500000026018SEAWAY RECIFE  005000000010039024SEAWAY NORTE   004000300000007025NEWMAR         007000000000095026RIO MAR        005000100000067028GUARARAPES     005000400010027029PATTEO         005000100020039030E-COMMERCE NOVO000000000000000                  000000000000000                  000000000000000                  000000000000000                  000000000000000                  000000000000000000400610000001900000000
4685005SEAWAY CS.FORTE005000200010027012IGUATEMI       004000400000002016TACARUNA       007000400010041018SEAWAY RECIFE  005000100010033024SEAWAY NORTE   004000200010010025NEWMAR         007000000010071026RIO MAR        005000100010066028GUARARAPES     005000400010029029PATTEO         005000200000027030E-COMMERCE NOVO000000000000000                  000000000000000                  000000000000000                  000000000000000                  000000000000000                  000000000000000000700150000002000000000
4719005SEAWAY CS.FORTE005000400000016012IGUATEMI       004000500000000016TACARUNA       007000100000022018SEAWAY RECIFE  005000000000018024SEAWAY NORTE   004000200000005025NEWMAR         007000000000049026RIO MAR        005000100000044028GUARARAPES     005000000000017029PATTEO         005000100000016030E-COMMERCE NOVO000000000000000                  000000000000000                  000000000000000                  000000000000000                  000000000000000                  000000000000000000200000000001400000000
4978005SEAWAY CS.FORTE005000800010006012IGUATEMI       004000400000000016TACARUNA       007000500000010018SEAWAY RECIFE  005000600000003024SEAWAY NORTE   004000600010003025NEWMAR         007000700030018026RIO MAR        005001600010008028GUARARAPES     005000400010003029PATTEO         005000400010009030E-COMMERCE NOVO000000000000000                  000000000000000                  000000000000000                  000000000000000                  000000000000000                  000000000000000000800000002006000000000
7051005SEAWAY CS.FORTE005000100020049012IGUATEMI       004000000000000016TACARUNA       007000400020047018SEAWAY RECIFE  005000100010024024SEAWAY NORTE   004000100010008025NEWMAR         007000000000093026RIO MAR        005000100010043028GUARARAPES     005000200020029029PATTEO         005000100010044030E-COMMERCE NOVO000000000000000                  000000000000000                  000000000000000                  000000000000000                  000000000000000                  000000000000000001000610000001100000000
7182005SEAWAY CS.FORTE005000000000012012IGUATEMI       004000000000000016TACARUNA       007000000000020018SEAWAY RECIFE  005000000000016024SEAWAY NORTE   004000100000007025NEWMAR         007000000000033026RIO MAR        005000000000026028GUARARAPES     005000100000016029PATTEO         005000000000011030E-COMMERCE NOVO000000000000000                  000000000000000                  000000000000000                  000000000000000                  000000000000000                  000000000000000000000630000000200000000
7311005SEAWAY CS.FORTE005000300030032012IGUATEMI       004000600000000016TACARUNA       007000600010049018SEAWAY RECIFE  005000100000054024SEAWAY NORTE   004000200000016025NEWMAR         007000100000114026RIO MAR        005000000000088028GUARARAPES     005000300000032029PATTEO         005000000010056030E-COMMERCE NOVO000000000000000                  000000000000000                  000000000000000                  000000000000000                  000000000000000                  000000000000000000500620000002200000000
7376005SEAWAY CS.FORTE005000100000036012IGUATEMI       004000500000004016TACARUNA       007000400000035018SEAWAY RECIFE  005000100000035024SEAWAY NORTE   004000100000011025NEWMAR         007000100020081026RIO MAR        005000200030050028GUARARAPES     005000500000018029PATTEO         005000100010040030E-COMMERCE NOVO000000000000000                  000000000000000                  000000000000000                  000000000000000                  000000000000000                  000000000000000000600600000002100000000
4711005SEAWAY CS.FORTE005000000000046012IGUATEMI       004000400000003016TACARUNA       007000200000031018SEAWAY RECIFE  005000000000035024SEAWAY NORTE   004000600000011025NEWMAR         007000000000102026RIO MAR        005000000000073028GUARARAPES     005000100000022029PATTEO         005000000000029030E-COMMERCE NOVO000000000000000                  000000000000000                  000000000000000                  000000000000000                  000000000000000                  000000000000000000400610000001300000001
4712005SEAWAY CS.FORTE005000900010014012IGUATEMI       004000400000000016TACARUNA       007000900000019018SEAWAY RECIFE  005000600010020024SEAWAY NORTE   004000600000005025NEWMAR         007000500010056026RIO MAR        005000300040035028GUARARAPES     005000400020013029PATTEO         005000300000016030E-COMMERCE NOVO000000000000000                  000000000000000                  000000000000000                  000000000000000                  000000000000000                  000000000000000000900660005004900000003
4713005SEAWAY CS.FORTE005000100000023012IGUATEMI       004000400000000016TACARUNA       007000400010008018SEAWAY RECIFE  005000600010018024SEAWAY NORTE   004000500000004025NEWMAR         007000300010037026RIO MAR        005000100020024028GUARARAPES     005000400010005029PATTEO         005000300020018030E-COMMERCE NOVO000000000000000                  000000000000000                  000000000000000                  000000000000000                  000000000000000                  000000000000000000800000000003100000000
4717005SEAWAY CS.FORTE005000000000004012IGUATEMI       004000200000003016TACARUNA       007000000000005018SEAWAY RECIFE  005000000000004024SEAWAY NORTE   004000300000001025NEWMAR         007000000000008026RIO MAR        005000100000006028GUARARAPES     005000400000003029PATTEO         005000000000009030E-COMMERCE NOVO000000000000000                  000000000000000                  000000000000000                  000000000000000                  000000000000000                  000000000000000000100600000001000000000
4718005SEAWAY CS.FORTE005000300000004012IGUATEMI       004000400000000016TACARUNA       007000200000005018SEAWAY RECIFE  005000100010005024SEAWAY NORTE   004000400000001025NEWMAR         007000000000008026RIO MAR        005000100000005028GUARARAPES     005000400000005029PATTEO         005000100000008030E-COMMERCE NOVO000000000000000                  000000000000000                  000000000000000                  000000000000000                  000000000000000                  000000000000000000100000000002000000000
4779005SEAWAY CS.FORTE005000200010077012IGUATEMI       004000300000006016TACARUNA       007000100000056018SEAWAY RECIFE  005000100000059024SEAWAY NORTE   004000100000018025NEWMAR         007000000000165026RIO MAR        005000200000097028GUARARAPES     005000100000034029PATTEO         005000100000043030E-COMMERCE NOVO000000000000000                  000000000000000                  000000000000000                  000000000000000                  000000000000000                  000000000000000000100900000001200000000
4780005SEAWAY CS.FORTE005000000000009012IGUATEMI       004000100000004016TACARUNA       007000100000007018SEAWAY RECIFE  005000100000005024SEAWAY NORTE   004000100000013025NEWMAR         007000200000021026RIO MAR        005000100000011028GUARARAPES     005000000000013029PATTEO         005000000000008030E-COMMERCE NOVO000000000000000                  000000000000000                  000000000000000                  000000000000000                  000000000000000                  000000000000000000000650000000700000000
4820005SEAWAY CS.FORTE005000000000006012IGUATEMI       004000400000000016TACARUNA       007000100000005018SEAWAY RECIFE  005000000000004024SEAWAY NORTE   004000300000005025NEWMAR         007000000000010026RIO MAR        005000000000005028GUARARAPES     005000100000004029PATTEO         005000000000006030E-COMMERCE NOVO000000000000000                  000000000000000                  000000000000000                  000000000000000                  000000000000000                  000000000000000000100600000000900000000
4821005SEAWAY CS.FORTE005000100000002012IGUATEMI       004000200000000016TACARUNA       007000000000004018SEAWAY RECIFE  005000000000002024SEAWAY NORTE   004000100000001025NEWMAR         007000000000005026RIO MAR        005000000000006028GUARARAPES     005000300000003029PATTEO         005000000000004030E-COMMERCE NOVO000000000000000                  000000000000000                  000000000000000                  000000000000000                  000000000000000                  000000000000000000100310000000700000000
4822005SEAWAY CS.FORTE005000000000006012IGUATEMI       004000400000000016TACARUNA       007000000000006018SEAWAY RECIFE  005000000000008024SEAWAY NORTE   004000100000003025NEWMAR         007000000000014026RIO MAR        005000000000005028GUARARAPES     005000200010008029PATTEO         005000000000009030E-COMMERCE NOVO000000000000000                  000000000000000                  000000000000000                  000000000000000                  000000000000000                  000000000000000000100600000000700000000
4584005SEAWAY CS.FORTE009000300000002012IGUATEMI       006000200010002016TACARUNA       010000300030011018SEAWAY RECIFE  009000300050007024SEAWAY NORTE   006000000000000025NEWMAR         010000500020007026RIO MAR        009000100030009028GUARARAPES     008000400010005029PATTEO         008000100000001030E-COMMERCE NOVO007000000000000                  000000000000000                  000000000000000                  000000000000000                  000000000000000                  000000000000000001500000000002200000000
4597005SEAWAY CS.FORTE009000400000000012IGUATEMI       006000300010001016TACARUNA       010000400010004018SEAWAY RECIFE  009000300030007024SEAWAY NORTE   006000400000000025NEWMAR         010000700010006026RIO MAR        009000300020005028GUARARAPES     008000300030004029PATTEO         008000400000002030E-COMMERCE NOVO007000000000000                  000000000000000                  000000000000000                  000000000000000                  000000000000000                  000000000000000001100000000003500000000
4622005SEAWAY CS.FORTE009000100000003012IGUATEMI       006000300010003016TACARUNA       010000000040007018SEAWAY RECIFE  009000000010001024SEAWAY NORTE   006000200010004025NEWMAR         010000000000001026RIO MAR        009000000000000028GUARARAPES     008000000010005029PATTEO         008000000020005030E-COMMERCE NOVO007000000000000                  000000000000000                  000000000000000                  000000000000000                  000000000000000                  000000000000000001000300000000600000000
4864005SEAWAY CS.FORTE008000700000004012IGUATEMI       008000800000000016TACARUNA       010000600010008018SEAWAY RECIFE  008001100000012024SEAWAY NORTE   008000600000000025NEWMAR         010001300010019026RIO MAR        008000800020011028GUARARAPES     008000600010002029PATTEO         008000800000005030E-COMMERCE NOVO006000600000007                  000000000000000                  000000000000000                  000000000000000                  000000000000000                  000000000000000000500000014007900000000
4877005SEAWAY CS.FORTE008000600020004012IGUATEMI       006000600010002016TACARUNA       010000600020006018SEAWAY RECIFE  008001100020006024SEAWAY NORTE   006000700000000025NEWMAR         010000700030009026RIO MAR        008000900020008028GUARARAPES     008001000010006029PATTEO         008001000000005030E-COMMERCE NOVO014000000000000                  000000000000000                  000000000000000                  000000000000000                  000000000000000                  000000000000000001300020001007200000000
4917005SEAWAY CS.FORTE011000000000005012IGUATEMI       011000000000001016TACARUNA       011000000000008018SEAWAY RECIFE  011000300000009024SEAWAY NORTE   011000100000000025NEWMAR         011000300010010026RIO MAR        011000200010013028GUARARAPES     011000100010005029PATTEO         011000100000006030E-COMMERCE NOVO011001500000018                  000000000000000                  000000000000000                  000000000000000                  000000000000000                  000000000000000000300600000002600000000
4940005SEAWAY CS.FORTE009000700000001012IGUATEMI       006000300020005016TACARUNA       010000400040017018SEAWAY RECIFE  009000300030010024SEAWAY NORTE   006000400000003025NEWMAR         010000600030014026RIO MAR        009000700000015028GUARARAPES     008000600000005029PATTEO         008000200000007030E-COMMERCE NOVO007000000000000                  000000000000000                  000000000000000                  000000000000000                  000000000000000                  000000000000000001200000000004200000000
4946005SEAWAY CS.FORTE008000500010014012IGUATEMI       008000700000002016TACARUNA       010001000010007018SEAWAY RECIFE  008000600000005024SEAWAY NORTE   008000400000001025NEWMAR         010000700000020026RIO MAR        008000800000019028GUARARAPES     008000600000003029PATTEO         008000600000003030E-COMMERCE NOVO006001100000003                  000000000000000                  000000000000000                  000000000000000                  000000000000000                  000000000000000000200000011007000000000
4966005SEAWAY CS.FORTE009000000010006012IGUATEMI       006000500000002016TACARUNA       012000200020027018SEAWAY RECIFE  009000200010008024SEAWAY NORTE   006000300000004025NEWMAR         013000100000031026RIO MAR        010000200020028028GUARARAPES     010000100010024029PATTEO         009000200010004030E-COMMERCE NOVO000000000000000                  000000000000000                  000000000000000                  000000000000000                  000000000000000                  000000000000000000800900000001800000000
4993005SEAWAY CS.FORTE009000300000009012IGUATEMI       006000500000001016TACARUNA       010000500010020018SEAWAY RECIFE  009000400000009024SEAWAY NORTE   006000400010004025NEWMAR         010000100030030026RIO MAR        009000300030017028GUARARAPES     008000300010006029PATTEO         008000100020016030E-COMMERCE NOVO007000000000000                  000000000000000                  000000000000000                  000000000000000                  000000000000000                  000000000000000001100000000002900000000
4994005SEAWAY CS.FORTE009000300040026012IGUATEMI       006000100030021016TACARUNA       012000400000030018SEAWAY RECIFE  009000000100031024SEAWAY NORTE   006000100050012025NEWMAR         013000800130070026RIO MAR        009000200100031028GUARARAPES     009000200010024029PATTEO         009000600010016030E-COMMERCE NOVO014001600050026                  000000000000000                  000000000000000                  000000000000000                  000000000000000                  000000000000000065002120001004301030000
4998005SEAWAY CS.FORTE009000000000000012IGUATEMI       009000000000000016TACARUNA       009000000000000018SEAWAY RECIFE  009000000000000024SEAWAY NORTE   009000000000000025NEWMAR         011000000000000026RIO MAR        011000000000000028GUARARAPES     009000000000000029PATTEO         009000000000000030E-COMMERCE NOVO025004500020012                  000000000000000                  000000000000000                  000000000000000                  000000000000000                  000000000000000000200180035004500000000
4999005SEAWAY CS.FORTE009000000000000012IGUATEMI       009000000000000016TACARUNA       009000000000000018SEAWAY RECIFE  009000000000000024SEAWAY NORTE   009000000000000025NEWMAR         011000000000001026RIO MAR        011000000000000028GUARARAPES     009000000000000029PATTEO         009000000000000030E-COMMERCE NOVO025002600010022                  000000000000000                  000000000000000                  000000000000000                  000000000000000                  000000000000000000100430017002600000000
5254005SEAWAY CS.FORTE009000000000000012IGUATEMI       009000000000000016TACARUNA       009000000000000018SEAWAY RECIFE  009000000000000024SEAWAY NORTE   009000000000000025NEWMAR         011000000000000026RIO MAR        011000000000000028GUARARAPES     009000000000000029PATTEO         009000000000000030E-COMMERCE NOVO025004100010017                  000000000000000                  000000000000000                  000000000000000                  000000000000000                  000000000000000000100010013004100000000
5258005SEAWAY CS.FORTE009000000000000012IGUATEMI       009000000000000016TACARUNA       009000000000000018SEAWAY RECIFE  009000000000000024SEAWAY NORTE   009000000000000025NEWMAR         011000000000000026RIO MAR        011000000000000028GUARARAPES     009000000000000029PATTEO         009000000000000030E-COMMERCE NOVO025000000000000                  000000000000000                  000000000000000                  000000000000000                  000000000000000                  000000000000000011001020000000000000000
5259005SEAWAY CS.FORTE009000000000000012IGUATEMI       009000000000000016TACARUNA       009000000000000018SEAWAY RECIFE  009000000000000024SEAWAY NORTE   009000000000000025NEWMAR         011000000000000026RIO MAR        011000000000000028GUARARAPES     009000000000000029PATTEO         009000000000000030E-COMMERCE NOVO025000000000000                  000000000000000                  000000000000000                  000000000000000                  000000000000000                  000000000000000011001020000000000000000
5265005SEAWAY CS.FORTE014000100170083012IGUATEMI       017001700970262016TACARUNA       016000800850321018SEAWAY RECIFE  012001400400145024SEAWAY NORTE   015001200500151025NEWMAR         015001100550229026RIO MAR        014000000230157028GUARARAPES     015001600620220029PATTEO         012000700410126030E-COMMERCE NOVO011000000000000                  000000000000000                  000000000000000                  000000000000000                  000000000000000                  000000000000000162500110000008601820001
5268005SEAWAY CS.FORTE014000600020011012IGUATEMI       017000000020044016TACARUNA       016000200060034018SEAWAY RECIFE  012001000050005024SEAWAY NORTE   015000500060031025NEWMAR         015000300060018026RIO MAR        014000300040014028GUARARAPES     015000300070032029PATTEO         012000400030012030E-COMMERCE NOVO011000100000014                  000000000000000                  000000000000000                  000000000000000                  000000000000000                  000000000000000069600010001003702730000
5270005SEAWAY CS.FORTE008000500020027012IGUATEMI       019000000060118016TACARUNA       014000000030068018SEAWAY RECIFE  008000100070037024SEAWAY NORTE   008000200030140025NEWMAR         014000600030043026RIO MAR        008000200010036028GUARARAPES     008000400030050029PATTEO         008000300020017030E-COMMERCE NOVO006000000000000                  000000000000000                  000000000000000                  000000000000000                  000000000000000                  000000000000000003000010000002300000005
5276005SEAWAY CS.FORTE009000000000061012IGUATEMI       006000400000011016TACARUNA       012000000000114018SEAWAY RECIFE  009000200010037024SEAWAY NORTE   006000500000004025NEWMAR         013000500030073026RIO MAR        009000100010050028GUARARAPES     009000100020041029PATTEO         009000100010034030E-COMMERCE NOVO014001200040014                  000000000000000                  000000000000000                  000000000000000                  000000000000000                  000000000000000001200000000003100000005
5277005SEAWAY CS.FORTE010000100010010012IGUATEMI       009000100010009016TACARUNA       014000000010018018SEAWAY RECIFE  010000000020008024SEAWAY NORTE   009000200010012025NEWMAR         014000200020019026RIO MAR        013000200020011028GUARARAPES     013000200030015029PATTEO         010000200000008030E-COMMERCE NOVO000000000000000                  000000000000000                  000000000000000                  000000000000000                  000000000000000                  000000000000000007400000000001200000000
5278005SEAWAY CS.FORTE008000100030040012IGUATEMI       008000500020009016TACARUNA       012000000000056018SEAWAY RECIFE  008000300020028024SEAWAY NORTE   008000900000002025NEWMAR         012000200020048026RIO MAR        009000100030023028GUARARAPES     010000200050021029PATTEO         008000000030018030E-COMMERCE NOVO000000000000000                  000000000000000                  000000000000000                  000000000000000                  000000000000000                  000000000000000002001200000002300000000
5279005SEAWAY CS.FORTE009000100080039012IGUATEMI       006000500010024016TACARUNA       012000000040118018SEAWAY RECIFE  009000300060025024SEAWAY NORTE   006000200050030025NEWMAR         013000300040052026RIO MAR        009000300080035028GUARARAPES     009000200020041029PATTEO         009000000030032030E-COMMERCE NOVO000000000000000                  000000000000000                  000000000000000                  000000000000000                  000000000000000                  000000000000000004100000000001900000000
5280005SEAWAY CS.FORTE010000000250107012IGUATEMI       009000000290103016TACARUNA       014000000330269018SEAWAY RECIFE  010000200410134024SEAWAY NORTE   009000600370098025NEWMAR         014000000560198026RIO MAR        013000200280122028GUARARAPES     013000200330188029PATTEO         010000100190066030E-COMMERCE NOVO000000000000000                  000000000000000                  000000000000000                  000000000000000                  000000000000000                  000000000000000030100100000001300000013
5283005SEAWAY CS.FORTE010000000140065012IGUATEMI       009000100060059016TACARUNA       014000100190154018SEAWAY RECIFE  010000200160056024SEAWAY NORTE   009000200120045025NEWMAR         014000100200113026RIO MAR        013000100100084028GUARARAPES     013000200220092029PATTEO         010000000060061030E-COMMERCE NOVO000000000000000                  000000000000000                  000000000000000                  000000000000000                  000000000000000                  000000000000000012500010000001000000004
5284005SEAWAY CS.FORTE009000300030026012IGUATEMI       006000400020003016TACARUNA       011000000000064018SEAWAY RECIFE  009000300050019024SEAWAY NORTE   006000500000003025NEWMAR         011000200060021026RIO MAR        009000200080028028GUARARAPES     009000200000016029PATTEO         009000200010013030E-COMMERCE NOVO000000000000000                  000000000000000                  000000000000000                  000000000000000                  000000000000000                  000000000000000002501200000002300000000
5287005SEAWAY CS.FORTE009000000030048012IGUATEMI       006000100020010016TACARUNA       011000000000057018SEAWAY RECIFE  009000000020015024SEAWAY NORTE   006000400000002025NEWMAR         011000300010032026RIO MAR        009000000010033028GUARARAPES     009000100040027029PATTEO         009000000020021030E-COMMERCE NOVO000000000000000                  000000000000000                  000000000000000                  000000000000000                  000000000000000                  000000000000000001501200000000900000005
5289005SEAWAY CS.FORTE014000300030020012IGUATEMI       017000100140107016TACARUNA       016000200070072018SEAWAY RECIFE  012000100060033024SEAWAY NORTE   015000200110060025NEWMAR         015000200090054026RIO MAR        014000300040046028GUARARAPES     015000100060043029PATTEO         012000100030035030E-COMMERCE NOVO011000000000000                  000000000000000                  000000000000000                  000000000000000                  000000000000000                  000000000000000097000020000001605050000
5290005SEAWAY CS.FORTE014000500090040012IGUATEMI       017002600330144016TACARUNA       016000600250104018SEAWAY RECIFE  012000200120057024SEAWAY NORTE   015001700220092025NEWMAR         015000800170090026RIO MAR        014000800060077028GUARARAPES     015001500250102029PATTEO         012000400110042030E-COMMERCE NOVO011000000000000                  000000000000000                  000000000000000                  000000000000000                  000000000000000                  000000000000000138100070000009105000000
5296005SEAWAY CS.FORTE008001600100036012IGUATEMI       019002800520237016TACARUNA       014002400300093018SEAWAY RECIFE  008001500120041024SEAWAY NORTE   008002700300165025NEWMAR         014001000140057026RIO MAR        008001400110037028GUARARAPES     008001500230069029PATTEO         008001900070036030E-COMMERCE NOVO006000000000000                  000000000000000                  000000000000000                  000000000000000                  000000000000000                  000000000000000018900030000016800000009
5297005SEAWAY CS.FORTE008000200040024012IGUATEMI       019000200150192016TACARUNA       014000700130073018SEAWAY RECIFE  008000500050027024SEAWAY NORTE   008000400030074025NEWMAR         014001200050034026RIO MAR        008000400040020028GUARARAPES     008000000060030029PATTEO         008000300030019030E-COMMERCE NOVO006000000000000                  000000000000000                  000000000000000                  000000000000000                  000000000000000                  000000000000000005800000000003900000015
5298005SEAWAY CS.FORTE008000300030021012IGUATEMI       019000000050124016TACARUNA       014000300030038018SEAWAY RECIFE  008000200040025024SEAWAY NORTE   008000100010096025NEWMAR         014000700030037026RIO MAR        008000500010029028GUARARAPES     008000000050027029PATTEO         008000100020022030E-COMMERCE NOVO006000000000000                  000000000000000                  000000000000000                  000000000000000                  000000000000000                  000000000000000002700000001002200000000
